{
  "_format": "hh-sol-artifact-1",
  "contractName": "DataIntegrity",
  "sourceName": "contracts/DataIntegrity.sol",
  "abi": [
    {
      "inputs": [],
      "stateMutability": "nonpayable",
      "type": "constructor"
    },
    {
      "inputs": [],
      "name": "AccessControlBadConfirmation",
      "type": "error"
    },
    {
      "inputs": [
        {
          "internalType": "address",
          "name": "account",
          "type": "address"
        },
        {
          "internalType": "bytes32",
          "name": "neededRole",
          "type": "bytes32"
        }
      ],
      "name": "AccessControlUnauthorizedAccount",
      "type": "error"
    },
    {
      "inputs": [
        {
          "internalType": "address",
          "name": "target",
          "type": "address"
        }
      ],
      "name": "AddressEmptyCode",
      "type": "error"
    },
    {
      "inputs": [
        {
          "internalType": "address",
          "name": "implementation",
          "type": "address"
        }
      ],
      "name": "ERC1967InvalidImplementation",
      "type": "error"
    },
    {
      "inputs": [],
      "name": "ERC1967NonPayable",
      "type": "error"
    },
    {
      "inputs": [],
      "name": "FailedCall",
      "type": "error"
    },
    {
      "inputs": [],
      "name": "InvalidInitialization",
      "type": "error"
    },
    {
      "inputs": [],
      "name": "NotInitializing",
      "type": "error"
    },
    {
      "inputs": [],
      "name": "ReentrancyGuardReentrantCall",
      "type": "error"
    },
    {
      "inputs": [],
      "name": "UUPSUnauthorizedCallContext",
      "type": "error"
    },
    {
      "inputs": [
        {
          "internalType": "bytes32",
          "name": "slot",
          "type": "bytes32"
        }
      ],
      "name": "UUPSUnsupportedProxiableUUID",
      "type": "error"
    },
    {
      "anonymous": false,
      "inputs": [
        {
          "indexed": false,
          "internalType": "uint64",
          "name": "version",
          "type": "uint64"
        }
      ],
      "name": "Initialized",
      "type": "event"
    },
    {
      "anonymous": false,
      "inputs": [
        {
          "indexed": true,
          "internalType": "bytes32",
          "name": "root",
          "type": "bytes32"
        },
        {
          "indexed": true,
          "internalType": "bytes32",
          "name": "recordSetId",
          "type": "bytes32"
        },
        {
          "indexed": true,
          "internalType": "address",
          "name": "storedBy",
          "type": "address"
        },
        {
          "indexed": false,
          "internalType": "uint32",
          "name": "recordCount",
          "type": "uint32"
        },
        {
          "indexed": false,
          "internalType": "uint64",
          "name": "timestamp",
          "type": "uint64"
        }
      ],
      "name": "MerkleRootStored",
      "type": "event"
    },
    {
      "anonymous": false,
      "inputs": [
        {
          "indexed": true,
          "internalType": "bytes32",
          "name": "root",
          "type": "bytes32"
        },
        {
          "indexed": false,
          "internalType": "bool",
          "name": "verified",
          "type": "bool"
        },
        {
          "indexed": false,
          "internalType": "uint64",
          "name": "timestamp",
          "type": "uint64"
        }
      ],
      "name": "MerkleRootVerified",
      "type": "event"
    },
    {
      "anonymous": false,
      "inputs": [
        {
          "indexed": true,
          "internalType": "bytes32",
          "name": "role",
          "type": "bytes32"
        },
        {
          "indexed": true,
          "internalType": "bytes32",
          "name": "previousAdminRole",
          "type": "bytes32"
        },
        {
          "indexed": true,
          "internalType": "bytes32",
          "name": "newAdminRole",
          "type": "bytes32"
        }
      ],
      "name": "RoleAdminChanged",
      "type": "event"
    },
    {
      "anonymous": false,
      "inputs": [
        {
          "indexed": true,
          "internalType": "bytes32",
          "name": "role",
          "type": "bytes32"
        },
        {
          "indexed": true,
          "internalType": "address",
          "name": "account",
          "type": "address"
        },
        {
          "indexed": true,
          "internalType": "address",
          "name": "sender",
          "type": "address"
        }
      ],
      "name": "RoleGranted",
      "type": "event"
    },
    {
      "anonymous": false,
      "inputs": [
        {
          "indexed": true,
          "internalType": "bytes32",
          "name": "role",
          "type": "bytes32"
        },
        {
          "indexed": true,
          "internalType": "address",
          "name": "account",
          "type": "address"
        },
        {
          "indexed": true,
          "internalType": "address",
          "name": "sender",
          "type": "address"
        }
      ],
      "name": "RoleRevoked",
      "type": "event"
    },
    {
      "anonymous": false,
      "inputs": [
        {
          "indexed": true,
          "internalType": "address",
          "name": "implementation",
          "type": "address"
        }
      ],
      "name": "Upgraded",
      "type": "event"
    },
    {
      "inputs": [],
      "name": "ADMIN_ROLE",
      "outputs": [
        {
          "internalType": "bytes32",
          "name": "",
          "type": "bytes32"
        }
      ],
      "stateMutability": "view",
      "type": "function"
    },
    {
      "inputs": [],
      "name": "DEFAULT_ADMIN_ROLE",
      "outputs": [
        {
          "internalType": "bytes32",
          "name": "",
          "type": "bytes32"
        }
      ],
      "stateMutability": "view",
      "type": "function"
    },
    {
      "inputs": [],
      "name": "UPGRADE_INTERFACE_VERSION",
      "outputs": [
        {
          "internalType": "string",
          "name": "",
          "type": "string"
        }
      ],
      "stateMutability": "view",
      "type": "function"
    },
    {
      "inputs": [],
      "name": "VERIFIER_ROLE",
      "outputs": [
        {
          "internalType": "bytes32",
          "name": "",
          "type": "bytes32"
        }
      ],
      "stateMutability": "view",
      "type": "function"
    },
    {
      "inputs": [
        {
          "internalType": "bytes32",
          "name": "root",
          "type": "bytes32"
        }
      ],
      "name": "getMerkleRootRecord",
      "outputs": [
        {
          "components": [
            {
              "internalType": "bytes32",
              "name": "root",
              "type": "bytes32"
            },
            {
              "internalType": "bytes32",
              "name": "recordSetId",
              "type": "bytes32"
            },
            {
              "internalType": "uint64",
              "name": "timestamp",
              "type": "uint64"
            },
            {
              "internalType": "uint32",
              "name": "recordCount",
              "type": "uint32"
            },
            {
              "internalType": "address",
              "name": "storedBy",
              "type": "address"
            }
          ],
          "internalType": "struct DataIntegrity.MerkleRootRecord",
          "name": "record",
          "type": "tuple"
        }
      ],
      "stateMutability": "view",
      "type": "function"
    },
    {
      "inputs": [
        {
          "internalType": "bytes32",
          "name": "recordSetId",
          "type": "bytes32"
        }
      ],
      "name": "getRecordSetRoots",
      "outputs": [
        {
          "internalType": "bytes32[]",
          "name": "roots",
          "type": "bytes32[]"
        }
      ],
      "stateMutability": "view",
      "type": "function"
    },
    {
      "inputs": [
        {
          "internalType": "bytes32",
          "name": "role",
          "type": "bytes32"
        }
      ],
      "name": "getRoleAdmin",
      "outputs": [
        {
          "internalType": "bytes32",
          "name": "",
          "type": "bytes32"
        }
      ],
      "stateMutability": "view",
      "type": "function"
    },
    {
      "inputs": [
        {
          "internalType": "uint256",
          "name": "index",
          "type": "uint256"
        }
      ],
      "name": "getRootAtIndex",
      "outputs": [
        {
          "internalType": "bytes32",
          "name": "root",
          "type": "bytes32"
        }
      ],
      "stateMutability": "view",
      "type": "function"
    },
    {
      "inputs": [],
      "name": "getTotalRoots",
      "outputs": [
        {
          "internalType": "uint256",
          "name": "count",
          "type": "uint256"
        }
      ],
      "stateMutability": "view",
      "type": "function"
    },
    {
      "inputs": [
        {
          "internalType": "bytes32",
          "name": "role",
          "type": "bytes32"
        },
        {
          "internalType": "address",
          "name": "account",
          "type": "address"
        }
      ],
      "name": "grantRole",
      "outputs": [],
      "stateMutability": "nonpayable",
      "type": "function"
    },
    {
      "inputs": [
        {
          "internalType": "bytes32",
          "name": "role",
          "type": "bytes32"
        },
        {
          "internalType": "address",
          "name": "account",
          "type": "address"
        }
      ],
      "name": "hasRole",
      "outputs": [
        {
          "internalType": "bool",
          "name": "",
          "type": "bool"
        }
      ],
      "stateMutability": "view",
      "type": "function"
    },
    {
      "inputs": [
        {
          "internalType": "address",
          "name": "admin",
          "type": "address"
        }
      ],
      "name": "initialize",
      "outputs": [],
      "stateMutability": "nonpayable",
      "type": "function"
    },
    {
      "inputs": [],
      "name": "proxiableUUID",
      "outputs": [
        {
          "internalType": "bytes32",
          "name": "",
          "type": "bytes32"
        }
      ],
      "stateMutability": "view",
      "type": "function"
    },
    {
      "inputs": [
        {
          "internalType": "bytes32",
          "name": "role",
          "type": "bytes32"
        },
        {
          "internalType": "address",
          "name": "callerConfirmation",
          "type": "address"
        }
      ],
      "name": "renounceRole",
      "outputs": [],
      "stateMutability": "nonpayable",
      "type": "function"
    },
    {
      "inputs": [
        {
          "internalType": "bytes32",
          "name": "role",
          "type": "bytes32"
        },
        {
          "internalType": "address",
          "name": "account",
          "type": "address"
        }
      ],
      "name": "revokeRole",
      "outputs": [],
      "stateMutability": "nonpayable",
      "type": "function"
    },
    {
      "inputs": [
        {
          "internalType": "bytes32",
          "name": "root",
          "type": "bytes32"
        },
        {
          "internalType": "bytes32",
          "name": "recordSetId",
          "type": "bytes32"
        },
        {
          "internalType": "uint32",
          "name": "recordCount",
          "type": "uint32"
        }
      ],
      "name": "storeMerkleRoot",
      "outputs": [
        {
          "internalType": "bool",
          "name": "success",
          "type": "bool"
        }
      ],
      "stateMutability": "nonpayable",
      "type": "function"
    },
    {
      "inputs": [
        {
          "internalType": "bytes4",
          "name": "interfaceId",
          "type": "bytes4"
        }
      ],
      "name": "supportsInterface",
      "outputs": [
        {
          "internalType": "bool",
          "name": "",
          "type": "bool"
        }
      ],
      "stateMutability": "view",
      "type": "function"
    },
    {
      "inputs": [
        {
          "internalType": "address",
          "name": "newImplementation",
          "type": "address"
        },
        {
          "internalType": "bytes",
          "name": "data",
          "type": "bytes"
        }
      ],
      "name": "upgradeToAndCall",
      "outputs": [],
      "stateMutability": "payable",
      "type": "function"
    },
    {
      "inputs": [
        {
          "internalType": "bytes32",
          "name": "root",
          "type": "bytes32"
        }
      ],
      "name": "verifyMerkleRoot",
      "outputs": [
        {
          "internalType": "bool",
          "name": "exists",
          "type": "bool"
        },
        {
          "components": [
            {
              "internalType": "bytes32",
              "name": "root",
              "type": "bytes32"
            },
            {
              "internalType": "bytes32",
              "name": "recordSetId",
              "type": "bytes32"
            },
            {
              "internalType": "uint64",
              "name": "timestamp",
              "type": "uint64"
            },
            {
              "internalType": "uint32",
              "name": "recordCount",
              "type": "uint32"
            },
            {
              "internalType": "address",
              "name": "storedBy",
              "type": "address"
            }
          ],
          "internalType": "struct DataIntegrity.MerkleRootRecord",
          "name": "record",
          "type": "tuple"
        }
      ],
      "stateMutability": "view",
      "type": "function"
    },
    {
      "inputs": [],
      "name": "version",
      "outputs": [
        {
          "internalType": "string",
          "name": "",
          "type": "string"
        }
      ],
      "stateMutability": "pure",
      "type": "function"
    }
  ],
  "bytecode": "0x60a06040523060805234801561001457600080fd5b5061001d610022565b6100d4565b7ff0c57e16840df040f15088dc2f81fe391c3923bec73e23a9662efc9c229c6a00805468010000000000000000900460ff16156100725760405163f92ee8a960e01b815260040160405180910390fd5b80546001600160401b03908116146100d15780546001600160401b0319166001600160401b0390811782556040519081527fc7f505b2f371ae2175ee4913f4499e1f2633a7b5936321eed1cdaeb6115181d29060200160405180910390a15b50565b6080516115716100fd60003960008181610d1101528181610d3a0152610e8d01526115716000f3fe60806040526004361061011f5760003560e01c806375b238fc116100a0578063ad3cb1cc11610064578063ad3cb1cc146103dc578063b55b95761461040d578063c4d66de814610422578063d547741f14610442578063e7705db61461046257600080fd5b806375b238fc1461032b5780638b843a751461034d57806391d148541461037a5780639b92d8751461039a578063a217fddf146103c757600080fd5b80634f1ef286116100e75780634f1ef2861461028c57806352d1902d1461029f57806354fd4d50146102b457806358156142146102eb5780636b5f03731461030b57600080fd5b806301ffc9a7146101245780630820dc2f14610159578063248a9ca31461021c5780632f2ff15d1461024a57806336568abe1461026c575b600080fd5b34801561013057600080fd5b5061014461013f3660046111d0565b610496565b60405190151581526020015b60405180910390f35b34801561016557600080fd5b5061020e6101743660046111fa565b6040805160a0810182526000808252602082018190529181018290526060810182905260808101829052505060009081526020818152604091829020825160a081018452815480825260018301549382019390935260029091015467ffffffffffffffff811693820193909352600160401b830463ffffffff166060820152600160601b9092046001600160a01b03166080830152151591565b604051610150929190611259565b34801561022857600080fd5b5061023c6102373660046111fa565b6104cd565b604051908152602001610150565b34801561025657600080fd5b5061026a610265366004611286565b6104ef565b005b34801561027857600080fd5b5061026a610287366004611286565b610511565b61026a61029a3660046112c8565b610549565b3480156102ab57600080fd5b5061023c610568565b3480156102c057600080fd5b506040805180820190915260058152640312e302e360dc1b60208201525b60405161015091906113ae565b3480156102f757600080fd5b506101446103063660046113e1565b610585565b34801561031757600080fd5b5061023c6103263660046111fa565b6108ac565b34801561033757600080fd5b5061023c60008051602061151c83398151915281565b34801561035957600080fd5b5061036d6103683660046111fa565b61091b565b6040516101509190611423565b34801561038657600080fd5b50610144610395366004611286565b6109f2565b3480156103a657600080fd5b506103ba6103b53660046111fa565b610a2a565b6040516101509190611431565b3480156103d357600080fd5b5061023c600081565b3480156103e857600080fd5b506102de604051806040016040528060058152602001640352e302e360dc1b81525081565b34801561041957600080fd5b5060025461023c565b34801561042e57600080fd5b5061026a61043d366004611475565b610a8c565b34801561044e57600080fd5b5061026a61045d366004611286565b610bbc565b34801561046e57600080fd5b5061023c7f0ce23c3e399818cfee81a7ab0880f714e53d7672b08df0fa62f2843416e1ea0981565b60006001600160e01b03198216637965db0b60e01b14806104c757506301ffc9a760e01b6001600160e01b03198316145b92915050565b60009081526000805160206114fc833981519152602052604090206001015490565b6104f8826104cd565b61050181610bd8565b61050b8383610be5565b50505050565b6001600160a01b038116331461053a5760405163334bd91960e11b815260040160405180910390fd5b6105448282610c8a565b505050565b610551610d06565b61055a82610dad565b6105648282610dc5565b5050565b6000610572610e82565b506000805160206114dc83398151915290565b600061058f610ecb565b836105d05760405162461bcd60e51b815260206004820152600c60248201526b125b9d985b1a59081c9bdbdd60a21b60448201526064015b60405180910390fd5b826106155760405162461bcd60e51b8152602060048201526015602482015274125b9d985b1a59081c9958dbdc99081cd95d081251605a1b60448201526064016105c7565b60008263ffffffff16116106625760405162461bcd60e51b8152602060048201526014602482015273125b9d985b1a59081c9958dbdc990818dbdd5b9d60621b60448201526064016105c7565b61067a60008051602061151c833981519152336109f2565b806106aa57506106aa7f0ce23c3e399818cfee81a7ab0880f714e53d7672b08df0fa62f2843416e1ea09336109f2565b6106e55760405162461bcd60e51b815260206004820152600c60248201526b155b985d5d1a1bdc9a5e995960a21b60448201526064016105c7565b600084815260208190526040902054156107375760405162461bcd60e51b8152602060048201526013602482015272149bdbdd08185b1c9958591e481cdd1bdc9959606a1b60448201526064016105c7565b6040805160a081018252858152602080820186815267ffffffffffffffff42811684860190815263ffffffff88811660608701818152336080890181815260008f8152808a528b81208b51815598516001808b0191909155875160029a8b018054965194516001600160a01b0316600160601b026bffffffffffffffffffffffff95909916600160401b026bffffffffffffffffffffffff19909716918b16919091179590951792909216959095179092558c845281885289842080548084018255908552888520018e905586549182018755959092527f405787fa12a823e0f2b7631cc41b3ba8828b3321ca811111fa75cd3aa3bb5ace9091018b905590518651918252909116928101929092529192869188917f6946f8f45be8c1c4ec379120e7017e28d589050cdb70f66a1bfdd1894334e6af910160405180910390a460019150506108a560017f9b779b17422d0df92223018b32b4d1fa46e071723d6817e2486d003becc55f0055565b9392505050565b60025460009082106108f65760405162461bcd60e51b8152602060048201526013602482015272496e646578206f7574206f6620626f756e647360681b60448201526064016105c7565b6002828154811061090957610909611490565b90600052602060002001549050919050565b6040805160a0810182526000808252602082018190529181018290526060810182905260808101919091525060008181526020818152604091829020825160a081018452815480825260018301549382019390935260029091015467ffffffffffffffff811693820193909352600160401b830463ffffffff166060820152600160601b9092046001600160a01b031660808301526109ed5760405162461bcd60e51b815260206004820152600e60248201526d149bdbdd081b9bdd08199bdd5b9960921b60448201526064016105c7565b919050565b60009182526000805160206114fc833981519152602090815260408084206001600160a01b0393909316845291905290205460ff1690565b600081815260016020908152604091829020805483518184028101840190945280845260609392830182828015610a8057602002820191906000526020600020905b815481526020019060010190808311610a6c575b50505050509050919050565b6000610a96610f3b565b805490915060ff600160401b820416159067ffffffffffffffff16600081158015610abe5750825b905060008267ffffffffffffffff166001148015610adb5750303b155b905081158015610ae9575080155b15610b075760405163f92ee8a960e01b815260040160405180910390fd5b845467ffffffffffffffff191660011785558315610b3157845460ff60401b1916600160401b1785555b610b39610f64565b610b41610f64565b610b49610f6c565b610b54600087610be5565b50610b6d60008051602061151c83398151915287610be5565b508315610bb457845460ff60401b19168555604051600181527fc7f505b2f371ae2175ee4913f4499e1f2633a7b5936321eed1cdaeb6115181d29060200160405180910390a15b505050505050565b610bc5826104cd565b610bce81610bd8565b61050b8383610c8a565b610be28133610f7c565b50565b60006000805160206114fc833981519152610c0084846109f2565b610c80576000848152602082815260408083206001600160a01b03871684529091529020805460ff19166001179055610c363390565b6001600160a01b0316836001600160a01b0316857f2f8788117e7eff1d82e926ec794901d17c78024a50270940304540a733656f0d60405160405180910390a460019150506104c7565b60009150506104c7565b60006000805160206114fc833981519152610ca584846109f2565b15610c80576000848152602082815260408083206001600160a01b0387168085529252808320805460ff1916905551339287917ff6391f5c32d9c69d2a47ea670b442974b53935d1edc7fd64eb21e047a839171b9190a460019150506104c7565b306001600160a01b037f0000000000000000000000000000000000000000000000000000000000000000161480610d8d57507f00000000000000000000000000000000000000000000000000000000000000006001600160a01b0316610d816000805160206114dc833981519152546001600160a01b031690565b6001600160a01b031614155b15610dab5760405163703e46dd60e11b815260040160405180910390fd5b565b60008051602061151c83398151915261056481610bd8565b816001600160a01b03166352d1902d6040518163ffffffff1660e01b8152600401602060405180830381865afa925050508015610e1f575060408051601f3d908101601f19168201909252610e1c918101906114a6565b60015b610e4757604051634c9c8ce360e01b81526001600160a01b03831660048201526024016105c7565b6000805160206114dc8339815191528114610e7857604051632a87526960e21b8152600481018290526024016105c7565b6105448383610fb5565b306001600160a01b037f00000000000000000000000000000000000000000000000000000000000000001614610dab5760405163703e46dd60e11b815260040160405180910390fd5b7f9b779b17422d0df92223018b32b4d1fa46e071723d6817e2486d003becc55f00805460011901610f0f57604051633ee5aeb560e01b815260040160405180910390fd5b60029055565b60017f9b779b17422d0df92223018b32b4d1fa46e071723d6817e2486d003becc55f0055565b6000807ff0c57e16840df040f15088dc2f81fe391c3923bec73e23a9662efc9c229c6a006104c7565b610dab61100b565b610f7461100b565b610dab611030565b610f8682826109f2565b6105645760405163e2517d3f60e01b81526001600160a01b0382166004820152602481018390526044016105c7565b610fbe82611038565b6040516001600160a01b038316907fbc7cd75a20ee27fd9adebab32041f755214dbc6bffa90cc0225b39da2e5c2d3b90600090a280511561100357610544828261109d565b610564611113565b611013611132565b610dab57604051631afcd79f60e31b815260040160405180910390fd5b610f1561100b565b806001600160a01b03163b60000361106e57604051634c9c8ce360e01b81526001600160a01b03821660048201526024016105c7565b6000805160206114dc83398151915280546001600160a01b0319166001600160a01b0392909216919091179055565b6060600080846001600160a01b0316846040516110ba91906114bf565b600060405180830381855af49150503d80600081146110f5576040519150601f19603f3d011682016040523d82523d6000602084013e6110fa565b606091505b509150915061110a85838361114c565b95945050505050565b3415610dab5760405163b398979f60e01b815260040160405180910390fd5b600061113c610f3b565b54600160401b900460ff16919050565b6060826111615761115c826111a8565b6108a5565b815115801561117857506001600160a01b0384163b155b156111a157604051639996b31560e01b81526001600160a01b03851660048201526024016105c7565b50806108a5565b8051156111b757805160208201fd5b60405163d6bda27560e01b815260040160405180910390fd5b6000602082840312156111e257600080fd5b81356001600160e01b0319811681146108a557600080fd5b60006020828403121561120c57600080fd5b5035919050565b805182526020808201519083015260408082015167ffffffffffffffff169083015260608082015163ffffffff16908301526080908101516001600160a01b0316910152565b821515815260c081016108a56020830184611213565b80356001600160a01b03811681146109ed57600080fd5b6000806040838503121561129957600080fd5b823591506112a96020840161126f565b90509250929050565b634e487b7160e01b600052604160045260246000fd5b600080604083850312156112db57600080fd5b6112e48361126f565b9150602083013567ffffffffffffffff8082111561130157600080fd5b818501915085601f83011261131557600080fd5b813581811115611327576113276112b2565b604051601f8201601f19908116603f0116810190838211818310171561134f5761134f6112b2565b8160405282815288602084870101111561136857600080fd5b8260208601602083013760006020848301015280955050505050509250929050565b60005b838110156113a557818101518382015260200161138d565b50506000910152565b60208152600082518060208401526113cd81604085016020870161138a565b601f01601f19169190910160400192915050565b6000806000606084860312156113f657600080fd5b8335925060208401359150604084013563ffffffff8116811461141857600080fd5b809150509250925092565b60a081016104c78284611213565b6020808252825182820181905260009190848201906040850190845b818110156114695783518352928401929184019160010161144d565b50909695505050505050565b60006020828403121561148757600080fd5b6108a58261126f565b634e487b7160e01b600052603260045260246000fd5b6000602082840312156114b857600080fd5b5051919050565b600082516114d181846020870161138a565b919091019291505056fe360894a13ba1a3210667c828492db98dca3e2076cc3735a920a3ca505d382bbc02dd7bc7dec4dceedda775e58dd541e08a116c6c53815c0bd028192f7b626800a49807205ce4d355092ef5a8a18f56e8913cf4a201fbe287825b095693c21775a264697066735822122053ffc8a4197dfcb4334e93315a9cc8ccb423fed3c44c34f3608d134dcf69cda664736f6c63430008160033",
  "linkReferences": {},
  "deployedLinkReferences": {}
}