{"contracts/AuditTrail.sol":{"AuditTrail":{"abi":[{"inputs":[],"stateMutability":"nonpayable","type":"constructor"},{"inputs":[],"name":"AccessControlBadConfirmation","type":"error"},{"inputs":[{"internalType":"address","name":"account","type":"address"},{"internalType":"bytes32","name":"neededRole","type":"bytes32"}],"name":"AccessControlUnauthorizedAccount","type":"error"},{"inputs":[{"internalType":"address","name":"target","type":"address"}],"name":"AddressEmptyCode","type":"error"},{"inputs":[{"internalType":"address","name":"implementation","type":"address"}],"name":"ERC1967InvalidImplementation","type":"error"},{"inputs":[],"name":"ERC1967NonPayable","type":"error"},{"inputs":[],"name":"FailedCall","type":"error"},{"inputs":[],"name":"InvalidInitialization","type":"error"},{"inputs":[],"name":"NotInitializing","type":"error"},{"inputs":[],"name":"ReentrancyGuardReentrantCall","type":"error"},{"inputs":[],"name":"UUPSUnauthorizedCallContext","type":"error"},{"inputs":[{"internalType":"bytes32","name":"slot","type":"bytes32"}],"name":"UUPSUnsupportedProxiableUUID","type":"error"},{"anonymous":false,"inputs":[{"indexed":true,"internalType":"bytes32","name":"entryId","type":"bytes32"},{"indexed":true,"internalType":"enum AuditTrail.AuditType","name":"auditType","type":"uint8"},{"indexed":true,"internalType":"address","name":"actorId","type":"address"},{"indexed":false,"internalType":"bytes32","name":"resourceId","type":"bytes32"},{"indexed":false,"internalType":"uint64","name":"timestamp","type":"uint64"},{"indexed":false,"internalType":"bool","name":"granted","type":"bool"},{"indexed":false,"internalType":"string","name":"reason","type":"string"}],"name":"AuditLogged","type":"event"},{"anonymous":false,"inputs":[{"indexed":false,"internalType":"bytes32[]","name":"entryIds","type":"bytes32[]"},{"indexed":false,"internalType":"enum AuditTrail.AuditType","name":"auditType","type":"uint8"},{"indexed":false,"internalType":"uint64","name":"timestamp","type":"uint64"}],"name":"BatchAuditLogged","type":"event"},{"anonymous":false,"inputs":[{"indexed":false,"internalType":"uint64","name":"version","type":"uint64"}],"name":"Initialized","type":"event"},{"anonymous":false,"inputs":[{"indexed":true,"internalType":"bytes32","name":"role","type":"bytes32"},{"indexed":true,"internalType":"bytes32","name":"previousAdminRole","type":"bytes32"},{"indexed":true,"internalType":"bytes32","name":"newAdminRole","type":"bytes32"}],"name":"RoleAdminChanged","type":"event"},{"anonymous":false,"inputs":[{"indexed":true,"internalType":"bytes32","name":"role","type":"bytes32"},{"indexed":true,"internalType":"address","name":"account","type":"address"},{"indexed":true,"internalType":"address","name":"sender","type":"address"}],"name":"RoleGranted","type":"event"},{"anonymous":false,"inputs":[{"indexed":true,"internalType":"bytes32","name":"role","type":"bytes32"},{"indexed":true,"internalType":"address","name":"account","type":"address"},{"indexed":true,"internalType":"address","name":"sender","type":"address"}],"name":"RoleRevoked","type":"event"},{"anonymous":false,"inputs":[{"indexed":true,"internalType":"address","name":"implementation","type":"address"}],"name":"Upgraded","type":"event"},{"inputs":[],"name":"ADMIN_ROLE","outputs":[{"internalType":"bytes32","name":"","type":"bytes32"}],"stateMutability":"view","type":"function"},{"inputs":[],"name":"AUDITOR_ROLE","outputs":[{"internalType":"bytes32","name":"","type":"bytes32"}],"stateMutability":"view","type":"function"},{"inputs":[],"name":"DEFAULT_ADMIN_ROLE","outputs":[{"internalType":"bytes32","name":"","type":"bytes32"}],"stateMutability":"view","type":"function"},{"inputs":[],"name":"UPGRADE_INTERFACE_VERSION","outputs":[{"internalType":"string","name":"","type":"string"}],"stateMutability":"view","type":"function"},{"inputs":[{"internalType":"address","name":"actorId","type":"address"}],"name":"getActorAuditTrail","outputs":[{"internalType":"bytes32[]","name":"entryIds","type":"bytes32[]"}],"stateMutability":"view","type":"function"},{"inputs":[{"internalType":"bytes32","name":"entryId","type":"bytes32"}],"name":"getAuditEntry","outputs":[{"components":[{"internalType":"bytes32","name":"entryId","type":"bytes32"},{"internalType":"enum AuditTrail.AuditType","name":"auditType","type":"uint8"},{"internalType":"address","name":"actorId","type":"address"},{"internalType":"bytes32","name":"resourceId","type":"bytes32"},{"internalType":"uint64","name":"timestamp","type":"uint64"},{"internalType":"bool","name":"granted","type":"bool"}],"internalType":"struct AuditTrail.AuditEntry","name":"entry","type":"tuple"}],"stateMutability":"view","type":"function"},{"inputs":[{"internalType":"bytes32","name":"resourceId","type":"bytes32"}],"name":"getResourceAuditTrail","outputs":[{"internalType":"bytes32[]","name":"entryIds","type":"bytes32[]"}],"stateMutability":"view","type":"function"},{"inputs":[{"internalType":"bytes32","name":"role","type":"bytes32"}],"name":"getRoleAdmin","outputs":[{"internalType":"bytes32","name":"","type":"bytes32"}],"stateMutability":"view","type":"function"},{"inputs":[{"internalType":"bytes32","name":"role","type":"bytes32"},{"internalType":"address","name":"account","type":"address"}],"name":"grantRole","outputs":[],"stateMutability":"nonpayable","type":"function"},{"inputs":[{"internalType":"bytes32","name":"role","type":"bytes32"},{"internalType":"address","name":"account","type":"address"}],"name":"hasRole","outputs":[{"internalType":"bool","name":"","type":"bool"}],"stateMutability":"view","type":"function"},{"inputs":[{"internalType":"address","name":"admin","type":"address"}],"name":"initialize","outputs":[],"stateMutability":"nonpayable","type":"function"},{"inputs":[{"internalType":"bytes32","name":"modelId","type":"bytes32"},{"internalType":"bytes32","name":"recordId","type":"bytes32"},{"internalType":"uint16","name":"confidence","type":"uint16"}],"name":"logAIDiagnostic","outputs":[{"internalType":"bytes32","name":"entryId","type":"bytes32"}],"stateMutability":"nonpayable","type":"function"},{"inputs":[{"internalType":"address","name":"actorId","type":"address"},{"internalType":"bytes32","name":"consentId","type":"bytes32"},{"internalType":"string","name":"action","type":"string"}],"name":"logConsentChange","outputs":[{"internalType":"bytes32","name":"entryId","type":"bytes32"}],"stateMutability":"nonpayable","type":"function"},{"inputs":[{"internalType":"address","name":"actorId","type":"address"},{"internalType":"bytes32","name":"resourceId","type":"bytes32"},{"internalType":"bool","name":"granted","type":"bool"},{"internalType":"string","name":"reason","type":"string"}],"name":"logDataAccess","outputs":[{"internalType":"bytes32","name":"entryId","type":"bytes32"}],"stateMutability":"nonpayable","type":"function"},{"inputs":[],"name":"proxiableUUID","outputs":[{"internalType":"bytes32","name":"","type":"bytes32"}],"stateMutability":"view","type":"function"},{"inputs":[{"internalType":"bytes32","name":"role","type":"bytes32"},{"internalType":"address","name":"callerConfirmation","type":"address"}],"name":"renounceRole","outputs":[],"stateMutability":"nonpayable","type":"function"},{"inputs":[{"internalType":"bytes32","name":"role","type":"bytes32"},{"internalType":"address","name":"account","type":"address"}],"name":"revokeRole","outputs":[],"stateMutability":"nonpayable","type":"function"},{"inputs":[{"internalType":"bytes4","name":"interfaceId","type":"bytes4"}],"name":"supportsInterface","outputs":[{"internalType":"bool","name":"","type":"bool"}],"stateMutability":"view","type":"function"},{"inputs":[{"internalType":"address","name":"newImplementation","type":"address"},{"internalType":"bytes","name":"data","type":"bytes"}],"name":"upgradeToAndCall","outputs":[],"stateMutability":"payable","type":"function"},{"inputs":[],"name":"version","outputs":[{"internalType":"string","name":"","type":"string"}],"stateMutability":"pure","type":"function"}],"evm":{"bytecode":{"linkReferences":{},"object":"60a06040523060805234801561001457600080fd5b5061001d610022565b6100d4565b7ff0c57e16840df040f15088dc2f81fe391c3923bec73e23a9662efc9c229c6a00805468010000000000000000900460ff16156100725760405163f92ee8a960e01b815260040160405180910390fd5b80546001600160401b03908116146100d15780546001600160401b0319166001600160401b0390811782556040519081527fc7f505b2f371ae2175ee4913f4499e1f2633a7b5936321eed1cdaeb6115181d29060200160405180910390a15b50565b608051611cd36100fd600039600081816111d80152818161120101526113660152611cd36000f3fe60806040526004361061011f5760003560e01c806354fd4d50116100a057806391d148541161006457806391d148541461036a578063a217fddf1461038a578063ad3cb1cc1461039f578063c4d66de8146103d0578063d547741f146103f057600080fd5b806354fd4d501461028b5780636e1d616e146102c2578063726b7251146102f657806375b238fc146103165780637a02fc7c1461034a57600080fd5b80632f2ff15d116100e75780632f2ff15d146101f457806336568abe146102165780634f1ef286146102365780634fe3b8b11461024957806352d1902d1461027657600080fd5b806301ffc9a71461012457806304b31f6614610159578063200140f014610187578063248a9ca3146101b45780632b1f1f84146101d4575b600080fd5b34801561013057600080fd5b5061014461013f366004611630565b610410565b60405190151581526020015b60405180910390f35b34801561016557600080fd5b506101796101743660046116b9565b610447565b604051908152602001610150565b34801561019357600080fd5b506101a76101a236600461172e565b610562565b6040516101509190611747565b3480156101c057600080fd5b506101796101cf36600461172e565b6105c4565b3480156101e057600080fd5b506101796101ef36600461178b565b6105e6565b34801561020057600080fd5b5061021461020f3660046117cb565b610768565b005b34801561022257600080fd5b506102146102313660046117cb565b61078a565b61021461024436600461180d565b6107c2565b34801561025557600080fd5b5061026961026436600461172e565b6107e1565b60405161015091906118e4565b34801561028257600080fd5b506101796108f8565b34801561029757600080fd5b506040805180820190915260058152640312e302e360dc1b60208201525b60405161015091906119a8565b3480156102ce57600080fd5b506101797f59a1c48e5837ad7a7f3dcedcbe129bf3249ec4fbf651fd4f5e2600ead39fe2f581565b34801561030257600080fd5b506101a76103113660046119bb565b610915565b34801561032257600080fd5b506101797fa49807205ce4d355092ef5a8a18f56e8913cf4a201fbe287825b095693c2177581565b34801561035657600080fd5b506101796103653660046119d6565b61097f565b34801561037657600080fd5b506101446103853660046117cb565b610a95565b34801561039657600080fd5b50610179600081565b3480156103ab57600080fd5b506102b5604051806040016040528060058152602001640352e302e360dc1b81525081565b3480156103dc57600080fd5b506102146103eb3660046119bb565b610acd565b3480156103fc57600080fd5b5061021461040b3660046117cb565b610c0d565b60006001600160e01b03198216637965db0b60e01b148061044157506301ffc9a760e01b6001600160e01b03198316145b92915050565b6000610451610c29565b6001600160a01b0386166104a45760405162461bcd60e51b8152602060048201526015602482015274496e76616c6964206163746f72206164647265737360581b60448201526064015b60405180910390fd5b846104e75760405162461bcd60e51b8152602060048201526013602482015272125b9d985b1a59081c995cdbdd5c98d9481251606a1b604482015260640161049b565b6104f46000878787610c61565b90506001600160a01b0386166000827ff0dea17f9b46824dd1389dae394fb01b4a036ebd544ade9dc4d7490b552038ae884289898960405161053a959493929190611a2f565b60405180910390a46105596001600080516020611c7e83398151915255565b95945050505050565b6000818152600160209081526040918290208054835181840281018401909452808452606093928301828280156105b857602002820191906000526020600020905b8154815260200190600101908083116105a4575b50505050509050919050565b6000908152600080516020611c5e833981519152602052604090206001015490565b60006105f0610c29565b836106305760405162461bcd60e51b815260206004820152601060248201526f125b9d985b1a59081b5bd9195b08125160821b604482015260640161049b565b826106715760405162461bcd60e51b8152602060048201526011602482015270125b9d985b1a59081c9958dbdc99081251607a1b604482015260640161049b565b6127108261ffff1611156106c75760405162461bcd60e51b815260206004820152601860248201527f496e76616c696420636f6e666964656e63652073636f72650000000000000000604482015260640161049b565b6106d660026000856001610c61565b905060006002827ff0dea17f9b46824dd1389dae394fb01b4a036ebd544ade9dc4d7490b552038ae8642600161070b8b610e2a565b6107148a610f59565b604051602001610725929190611a7e565b60408051601f198184030181529082905261074294939291611ad9565b60405180910390a46107616001600080516020611c7e83398151915255565b9392505050565b610771826105c4565b61077a81611098565b61078483836110a5565b50505050565b6001600160a01b03811633146107b35760405163334bd91960e11b815260040160405180910390fd5b6107bd8282611151565b505050565b6107ca6111cd565b6107d382611274565b6107dd828261129e565b5050565b6040805160c081018252600080825260208201819052918101829052606081018290526080810182905260a081019190915260008281526020818152604091829020825160c08101909352805483526001810154909183019060ff16600381111561084e5761084e6118ce565b600381111561085f5761085f6118ce565b8152600182015461010090046001600160a01b03166020820152600282015460408201526003909101546001600160401b0381166060830152600160401b900460ff16151560809091015280519091506108f35760405162461bcd60e51b8152602060048201526015602482015274105d591a5d08195b9d1c9e481b9bdd08199bdd5b99605a1b604482015260640161049b565b919050565b600061090261135b565b50600080516020611c3e83398151915290565b6001600160a01b0381166000908152600260209081526040918290208054835181840281018401909452808452606093928301828280156105b857602002820191906000526020600020908154815260200190600101908083116105a45750505050509050919050565b6000610989610c29565b6001600160a01b0385166109d75760405162461bcd60e51b8152602060048201526015602482015274496e76616c6964206163746f72206164647265737360581b604482015260640161049b565b83610a195760405162461bcd60e51b8152602060048201526012602482015271125b9d985b1a590818dbdb9cd95b9d08125160721b604482015260640161049b565b610a27600186866001610c61565b90506001600160a01b0385166001827ff0dea17f9b46824dd1389dae394fb01b4a036ebd544ade9dc4d7490b552038ae874260018989604051610a6e959493929190611a2f565b60405180910390a4610a8d6001600080516020611c7e83398151915255565b949350505050565b6000918252600080516020611c5e833981519152602090815260408084206001600160a01b0393909316845291905290205460ff1690565b6000610ad76113a4565b805490915060ff600160401b82041615906001600160401b0316600081158015610afe5750825b90506000826001600160401b03166001148015610b1a5750303b155b905081158015610b28575080155b15610b465760405163f92ee8a960e01b815260040160405180910390fd5b845467ffffffffffffffff191660011785558315610b7057845460ff60401b1916600160401b1785555b610b786113cd565b610b806113cd565b610b886113d5565b610b936000876110a5565b50610bbe7fa49807205ce4d355092ef5a8a18f56e8913cf4a201fbe287825b095693c21775876110a5565b508315610c0557845460ff60401b19168555604051600181527fc7f505b2f371ae2175ee4913f4499e1f2633a7b5936321eed1cdaeb6115181d29060200160405180910390a15b505050505050565b610c16826105c4565b610c1f81611098565b6107848383611151565b600080516020611c7e833981519152805460011901610c5b57604051633ee5aeb560e01b815260040160405180910390fd5b60029055565b6000838342435a60405160609590951b6bffffffffffffffffffffffff19166020860152603485019390935260548401919091526074830152609482015260b40160405160208183030381529060405280519060200120905060006040518060c00160405280838152602001876003811115610cdf57610cdf6118ce565b8152602001866001600160a01b03168152602001858152602001426001600160401b031681526020018415158152509050806000808481526020019081526020016000206000820151816000015560208201518160010160006101000a81548160ff02191690836003811115610d5757610d576118ce565b0217905550604082810151600180840180546001600160a01b0393841661010002610100600160a81b0319909116179055606085015160028086019190915560808601516003909501805460a0909701511515600160401b0268ffffffffffffffffff199097166001600160401b039096169590951795909517909355600088815260208481528382208054808701825590835281832001889055918a1681529381529083208054928301815583529091200182905550949350505050565b6001600080516020611c7e83398151915255565b606060005b60208160ff16108015610e635750828160ff1660208110610e5257610e52611b13565b1a60f81b6001600160f81b03191615155b15610e7a5780610e7281611b3f565b915050610e2f565b60008160ff166001600160401b03811115610e9757610e976117f7565b6040519080825280601f01601f191660200182016040528015610ec1576020820181803683370190505b509050600091505b60208260ff16108015610efd5750838260ff1660208110610eec57610eec611b13565b1a60f81b6001600160f81b03191615155b1561076157838260ff1660208110610f1757610f17611b13565b1a60f81b818360ff1681518110610f3057610f30611b13565b60200101906001600160f81b031916908160001a90535081610f5181611b3f565b925050610ec9565b60608161ffff16600003610f845750506040805180820190915260018152600360fc1b602082015290565b8160005b61ffff821615610fb25780610f9c81611b5e565b9150610fab9050600a83611b7f565b9150610f88565b60008161ffff166001600160401b03811115610fd057610fd06117f7565b6040519080825280601f01601f191660200182016040528015610ffa576020820181803683370190505b509050815b61ffff86161561108f57611014600182611bae565b90506000611023600a88611b7f565b61102e90600a611bc9565b6110389088611bae565b611043906030611bef565b905060008160f81b905080848461ffff168151811061106457611064611b13565b60200101906001600160f81b031916908160001a905350611086600a89611b7f565b97505050610fff565b50949350505050565b6110a281336113e5565b50565b6000600080516020611c5e8339815191526110c08484610a95565b611140576000848152602082815260408083206001600160a01b03871684529091529020805460ff191660011790556110f63390565b6001600160a01b0316836001600160a01b0316857f2f8788117e7eff1d82e926ec794901d17c78024a50270940304540a733656f0d60405160405180910390a46001915050610441565b6000915050610441565b5092915050565b6000600080516020611c5e83398151915261116c8484610a95565b15611140576000848152602082815260408083206001600160a01b0387168085529252808320805460ff1916905551339287917ff6391f5c32d9c69d2a47ea670b442974b53935d1edc7fd64eb21e047a839171b9190a46001915050610441565b306001600160a01b037f000000000000000000000000000000000000000000000000000000000000000016148061125457507f00000000000000000000000000000000000000000000000000000000000000006001600160a01b0316611248600080516020611c3e833981519152546001600160a01b031690565b6001600160a01b031614155b156112725760405163703e46dd60e11b815260040160405180910390fd5b565b7fa49807205ce4d355092ef5a8a18f56e8913cf4a201fbe287825b095693c217756107dd81611098565b816001600160a01b03166352d1902d6040518163ffffffff1660e01b8152600401602060405180830381865afa9250505080156112f8575060408051601f3d908101601f191682019092526112f591810190611c08565b60015b61132057604051634c9c8ce360e01b81526001600160a01b038316600482015260240161049b565b600080516020611c3e833981519152811461135157604051632a87526960e21b81526004810182905260240161049b565b6107bd838361141e565b306001600160a01b037f000000000000000000000000000000000000000000000000000000000000000016146112725760405163703e46dd60e11b815260040160405180910390fd5b6000807ff0c57e16840df040f15088dc2f81fe391c3923bec73e23a9662efc9c229c6a00610441565b611272611474565b6113dd611474565b611272611499565b6113ef8282610a95565b6107dd5760405163e2517d3f60e01b81526001600160a01b03821660048201526024810183905260440161049b565b611427826114a1565b6040516001600160a01b038316907fbc7cd75a20ee27fd9adebab32041f755214dbc6bffa90cc0225b39da2e5c2d3b90600090a280511561146c576107bd8282611506565b6107dd611573565b61147c611592565b61127257604051631afcd79f60e31b815260040160405180910390fd5b610e16611474565b806001600160a01b03163b6000036114d757604051634c9c8ce360e01b81526001600160a01b038216600482015260240161049b565b600080516020611c3e83398151915280546001600160a01b0319166001600160a01b0392909216919091179055565b6060600080846001600160a01b0316846040516115239190611c21565b600060405180830381855af49150503d806000811461155e576040519150601f19603f3d011682016040523d82523d6000602084013e611563565b606091505b50915091506105598583836115ac565b34156112725760405163b398979f60e01b815260040160405180910390fd5b600061159c6113a4565b54600160401b900460ff16919050565b6060826115c1576115bc82611608565b610761565b81511580156115d857506001600160a01b0384163b155b1561160157604051639996b31560e01b81526001600160a01b038516600482015260240161049b565b5080610761565b80511561161757805160208201fd5b60405163d6bda27560e01b815260040160405180910390fd5b60006020828403121561164257600080fd5b81356001600160e01b03198116811461076157600080fd5b80356001600160a01b03811681146108f357600080fd5b60008083601f84011261168357600080fd5b5081356001600160401b0381111561169a57600080fd5b6020830191508360208285010111156116b257600080fd5b9250929050565b6000806000806000608086880312156116d157600080fd5b6116da8661165a565b945060208601359350604086013580151581146116f657600080fd5b925060608601356001600160401b0381111561171157600080fd5b61171d88828901611671565b969995985093965092949392505050565b60006020828403121561174057600080fd5b5035919050565b6020808252825182820181905260009190848201906040850190845b8181101561177f57835183529284019291840191600101611763565b50909695505050505050565b6000806000606084860312156117a057600080fd5b8335925060208401359150604084013561ffff811681146117c057600080fd5b809150509250925092565b600080604083850312156117de57600080fd5b823591506117ee6020840161165a565b90509250929050565b634e487b7160e01b600052604160045260246000fd5b6000806040838503121561182057600080fd5b6118298361165a565b915060208301356001600160401b038082111561184557600080fd5b818501915085601f83011261185957600080fd5b81358181111561186b5761186b6117f7565b604051601f8201601f19908116603f01168101908382118183101715611893576118936117f7565b816040528281528860208487010111156118ac57600080fd5b8260208601602083013760006020848301015280955050505050509250929050565b634e487b7160e01b600052602160045260246000fd5b81518152602082015160c08201906004811061191057634e487b7160e01b600052602160045260246000fd5b60208301526040838101516001600160a01b031690830152606080840151908301526080808401516001600160401b03169083015260a0928301511515929091019190915290565b60005b8381101561197357818101518382015260200161195b565b50506000910152565b60008151808452611994816020860160208601611958565b601f01601f19169290920160200192915050565b602081526000610761602083018461197c565b6000602082840312156119cd57600080fd5b6107618261165a565b600080600080606085870312156119ec57600080fd5b6119f58561165a565b93506020850135925060408501356001600160401b03811115611a1757600080fd5b611a2387828801611671565b95989497509550505050565b8581526001600160401b0385166020820152831515604082015260806060820152816080820152818360a0830137600081830160a090810191909152601f909201601f19160101949350505050565b66026b7b232b61d160cd1b815260008351611aa0816007850160208801611958565b6c01021b7b73334b232b731b29d1609d1b6007918401918201528351611acd816014840160208801611958565b01601401949350505050565b8481526001600160401b03841660208201528215156040820152608060608201526000611b09608083018461197c565b9695505050505050565b634e487b7160e01b600052603260045260246000fd5b634e487b7160e01b600052601160045260246000fd5b600060ff821660ff8103611b5557611b55611b29565b60010192915050565b600061ffff808316818103611b7557611b75611b29565b6001019392505050565b600061ffff80841680611ba257634e487b7160e01b600052601260045260246000fd5b92169190910492915050565b61ffff82811682821603908082111561114a5761114a611b29565b61ffff818116838216028082169190828114611be757611be7611b29565b505092915050565b60ff818116838216019081111561044157610441611b29565b600060208284031215611c1a57600080fd5b5051919050565b60008251611c33818460208701611958565b919091019291505056fe360894a13ba1a3210667c828492db98dca3e2076cc3735a920a3ca505d382bbc02dd7bc7dec4dceedda775e58dd541e08a116c6c53815c0bd028192f7b6268009b779b17422d0df92223018b32b4d1fa46e071723d6817e2486d003becc55f00a2646970667358221220800d7212a52e4fefedb8eab6155b0232f1f879f99ca458bd62fb1eba2baf521364736f6c63430008160033","opcodes":"PUSH1 0xA0 PUSH1 0x40 MSTORE ADDRESS PUSH1 0x80 MSTORE CALLVALUE DUP1 ISZERO PUSH2 0x14 JUMPI PUSH1 0x0 DUP1 REVERT JUMPDEST POP PUSH2 0x1D PUSH2 0x22 JUMP JUMPDEST PUSH2 0xD4 JUMP JUMPDEST PUSH32 0xF0C57E16840DF040F15088DC2F81FE391C3923BEC73E23A9662EFC9C229C6A00 DUP1 SLOAD PUSH9 0x10000000000000000 SWAP1 DIV PUSH1 0xFF AND ISZERO PUSH2 0x72 JUMPI PUSH1 0x40 MLOAD PUSH4 0xF92EE8A9 PUSH1 0xE0 SHL DUP2 MSTORE PUSH1 0x4 ADD PUSH1 0x40 MLOAD DUP1 SWAP2 SUB SWAP1 REVERT JUMPDEST DUP1 SLOAD PUSH1 0x1 PUSH1 0x1 PUSH1 0x40 SHL SUB SWAP1 DUP2 AND EQ PUSH2 0xD1 JUMPI DUP1 SLOAD PUSH1 0x1 PUSH1 0x1 PUSH1 0x40 SHL SUB NOT AND PUSH1 0x1 PUSH1 0x1 PUSH1 0x40 SHL SUB SWAP1 DUP2 OR DUP3 SSTORE PUSH1 0x40 MLOAD SWAP1 DUP2 MSTORE PUSH32 0xC7F505B2F371AE2175EE4913F4499E1F2633A7B5936321EED1CDAEB6115181D2 SWAP1 PUSH1 0x20 ADD PUSH1 0x40 MLOAD DUP1 SWAP2 SUB SWAP1 LOG1 JUMPDEST POP JUMP JUMPDEST PUSH1 0x80 MLOAD PUSH2 0x1CD3 PUSH2 0xFD PUSH1 0x0 CODECOPY PUSH1 0x0 DUP2 DUP2 PUSH2 0x11D8 ADD MSTORE DUP2 DUP2 PUSH2 0x1201 ADD MSTORE PUSH2 0x1366 ADD MSTORE PUSH2 0x1CD3 PUSH1 0x0 RETURN INVALID PUSH1 0x80 PUSH1 0x40 MSTORE PUSH1 0x4 CALLDATASIZE LT PUSH2 0x11F JUMPI PUSH1 0x0 CALLDATALOAD PUSH1 0xE0 SHR DUP1 PUSH4 0x54FD4D50 GT PUSH2 0xA0 JUMPI DUP1 PUSH4 0x91D14854 GT PUSH2 0x64 JUMPI DUP1 PUSH4 0x91D14854 EQ PUSH2 0x36A JUMPI DUP1 PUSH4 0xA217FDDF EQ PUSH2 0x38A JUMPI DUP1 PUSH4 0xAD3CB1CC EQ PUSH2 0x39F JUMPI DUP1 PUSH4 0xC4D66DE8 EQ PUSH2 0x3D0 JUMPI DUP1 PUSH4 0xD547741F EQ PUSH2 0x3F0 JUMPI PUSH1 0x0 DUP1 REVERT JUMPDEST DUP1 PUSH4 0x54FD4D50 EQ PUSH2 0x28B JUMPI DUP1 PUSH4 0x6E1D616E EQ PUSH2 0x2C2 JUMPI DUP1 PUSH4 0x726B7251 EQ PUSH2 0x2F6 JUMPI DUP1 PUSH4 0x75B238FC EQ PUSH2 0x316 JUMPI DUP1 PUSH4 0x7A02FC7C EQ PUSH2 0x34A JUMPI PUSH1 0x0 DUP1 REVERT JUMPDEST DUP1 PUSH4 0x2F2FF15D GT PUSH2 0xE7 JUMPI DUP1 PUSH4 0x2F2FF15D EQ PUSH2 0x1F4 JUMPI DUP1 PUSH4 0x36568ABE EQ PUSH2 0x216 JUMPI DUP1 PUSH4 0x4F1EF286 EQ PUSH2 0x236 JUMPI DUP1 PUSH4 0x4FE3B8B1 EQ PUSH2 0x249 JUMPI DUP1 PUSH4 0x52D1902D EQ PUSH2 0x276 JUMPI PUSH1 0x0 DUP1 REVERT JUMPDEST DUP1 PUSH4 0x1FFC9A7 EQ PUSH2 0x124 JUMPI DUP1 PUSH4 0x4B31F66 EQ PUSH2 0x159 JUMPI DUP1 PUSH4 0x200140F0 EQ PUSH2 0x187 JUMPI DUP1 PUSH4 0x248A9CA3 EQ PUSH2 0x1B4 JUMPI DUP1 PUSH4 0x2B1F1F84 EQ PUSH2 0x1D4 JUMPI JUMPDEST PUSH1 0x0 DUP1 REVERT JUMPDEST CALLVALUE DUP1 ISZERO PUSH2 0x130 JUMPI PUSH1 0x0 DUP1 REVERT JUMPDEST POP PUSH2 0x144 PUSH2 0x13F CALLDATASIZE PUSH1 0x4 PUSH2 0x1630 JUMP JUMPDEST PUSH2 0x410 JUMP JUMPDEST PUSH1 0x40 MLOAD SWAP1 ISZERO ISZERO DUP2 MSTORE PUSH1 0x20 ADD JUMPDEST PUSH1 0x40 MLOAD DUP1 SWAP2 SUB SWAP1 RETURN JUMPDEST CALLVALUE DUP1 ISZERO PUSH2 0x165 JUMPI PUSH1 0x0 DUP1 REVERT JUMPDEST POP PUSH2 0x179 PUSH2 0x174 CALLDATASIZE PUSH1 0x4 PUSH2 0x16B9 JUMP JUMPDEST PUSH2 0x447 JUMP JUMPDEST PUSH1 0x40 MLOAD SWAP1 DUP2 MSTORE PUSH1 0x20 ADD PUSH2 0x150 JUMP JUMPDEST CALLVALUE DUP1 ISZERO PUSH2 0x193 JUMPI PUSH1 0x0 DUP1 REVERT JUMPDEST POP PUSH2 0x1A7 PUSH2 0x1A2 CALLDATASIZE PUSH1 0x4 PUSH2 0x172E JUMP JUMPDEST PUSH2 0x562 JUMP JUMPDEST PUSH1 0x40 MLOAD PUSH2 0x150 SWAP2 SWAP1 PUSH2 0x1747 JUMP JUMPDEST CALLVALUE DUP1 ISZERO PUSH2 0x1C0 JUMPI PUSH1 0x0 DUP1 REVERT JUMPDEST POP PUSH2 0x179 PUSH2 0x1CF CALLDATASIZE PUSH1 0x4 PUSH2 0x172E JUMP JUMPDEST PUSH2 0x5C4 JUMP JUMPDEST CALLVALUE DUP1 ISZERO PUSH2 0x1E0 JUMPI PUSH1 0x0 DUP1 REVERT JUMPDEST POP PUSH2 0x179 PUSH2 0x1EF CALLDATASIZE PUSH1 0x4 PUSH2 0x178B JUMP JUMPDEST PUSH2 0x5E6 JUMP JUMPDEST CALLVALUE DUP1 ISZERO PUSH2 0x200 JUMPI PUSH1 0x0 DUP1 REVERT JUMPDEST POP PUSH2 0x214 PUSH2 0x20F CALLDATASIZE PUSH1 0x4 PUSH2 0x17CB JUMP JUMPDEST PUSH2 0x768 JUMP JUMPDEST STOP JUMPDEST CALLVALUE DUP1 ISZERO PUSH2 0x222 JUMPI PUSH1 0x0 DUP1 REVERT JUMPDEST POP PUSH2 0x214 PUSH2 0x231 CALLDATASIZE PUSH1 0x4 PUSH2 0x17CB JUMP JUMPDEST PUSH2 0x78A JUMP JUMPDEST PUSH2 0x214 PUSH2 0x244 CALLDATASIZE PUSH1 0x4 PUSH2 0x180D JUMP JUMPDEST PUSH2 0x7C2 JUMP JUMPDEST CALLVALUE DUP1 ISZERO PUSH2 0x255 JUMPI PUSH1 0x0 DUP1 REVERT JUMPDEST POP PUSH2 0x269 PUSH2 0x264 CALLDATASIZE PUSH1 0x4 PUSH2 0x172E JUMP JUMPDEST PUSH2 0x7E1 JUMP JUMPDEST PUSH1 0x40 MLOAD PUSH2 0x150 SWAP2 SWAP1 PUSH2 0x18E4 JUMP JUMPDEST CALLVALUE DUP1 ISZERO PUSH2 0x282 JUMPI PUSH1 0x0 DUP1 REVERT JUMPDEST POP PUSH2 0x179 PUSH2 0x8F8 JUMP JUMPDEST CALLVALUE DUP1 ISZERO PUSH2 0x297 JUMPI PUSH1 0x0 DUP1 REVERT JUMPDEST POP PUSH1 0x40 DUP1 MLOAD DUP1 DUP3 ADD SWAP1 SWAP2 MSTORE PUSH1 0x5 DUP2 MSTORE PUSH5 0x312E302E3 PUSH1 0xDC SHL PUSH1 0x20 DUP3 ADD MSTORE JUMPDEST PUSH1 0x40 MLOAD PUSH2 0x150 SWAP2 SWAP1 PUSH2 0x19A8 JUMP JUMPDEST CALLVALUE DUP1 ISZERO PUSH2 0x2CE JUMPI PUSH1 0x0 DUP1 REVERT JUMPDEST POP PUSH2 0x179 PUSH32 0x59A1C48E5837AD7A7F3DCEDCBE129BF3249EC4FBF651FD4F5E2600EAD39FE2F5 DUP2 JUMP JUMPDEST CALLVALUE DUP1 ISZERO PUSH2 0x302 JUMPI PUSH1 0x0 DUP1 REVERT JUMPDEST POP PUSH2 0x1A7 PUSH2 0x311 CALLDATASIZE PUSH1 0x4 PUSH2 0x19BB JUMP JUMPDEST PUSH2 0x915 JUMP JUMPDEST CALLVALUE DUP1 ISZERO PUSH2 0x322 JUMPI PUSH1 0x0 DUP1 REVERT JUMPDEST POP PUSH2 0x179 PUSH32 0xA49807205CE4D355092EF5A8A18F56E8913CF4A201FBE287825B095693C21775 DUP2 JUMP JUMPDEST CALLVALUE DUP1 ISZERO PUSH2 0x356 JUMPI PUSH1 0x0 DUP1 REVERT JUMPDEST POP PUSH2 0x179 PUSH2 0x365 CALLDATASIZE PUSH1 0x4 PUSH2 0x19D6 JUMP JUMPDEST PUSH2 0x97F JUMP JUMPDEST CALLVALUE DUP1 ISZERO PUSH2 0x376 JUMPI PUSH1 0x0 DUP1 REVERT JUMPDEST POP PUSH2 0x144 PUSH2 0x385 CALLDATASIZE PUSH1 0x4 PUSH2 0x17CB JUMP JUMPDEST PUSH2 0xA95 JUMP JUMPDEST CALLVALUE DUP1 ISZERO PUSH2 0x396 JUMPI PUSH1 0x0 DUP1 REVERT JUMPDEST POP PUSH2 0x179 PUSH1 0x0 DUP2 JUMP JUMPDEST CALLVALUE DUP1 ISZERO PUSH2 0x3AB JUMPI PUSH1 0x0 DUP1 REVERT JUMPDEST POP PUSH2 0x2B5 PUSH1 0x40 MLOAD DUP1 PUSH1 0x40 ADD PUSH1 0x40 MSTORE DUP1 PUSH1 0x5 DUP2 MSTORE PUSH1 0x20 ADD PUSH5 0x352E302E3 PUSH1 0xDC SHL DUP2 MSTORE POP DUP2 JUMP JUMPDEST CALLVALUE DUP1 ISZERO PUSH2 0x3DC JUMPI PUSH1 0x0 DUP1 REVERT JUMPDEST POP PUSH2 0x214 PUSH2 0x3EB CALLDATASIZE PUSH1 0x4 PUSH2 0x19BB JUMP JUMPDEST PUSH2 0xACD JUMP JUMPDEST CALLVALUE DUP1 ISZERO PUSH2 0x3FC JUMPI PUSH1 0x0 DUP1 REVERT JUMPDEST POP PUSH2 0x214 PUSH2 0x40B CALLDATASIZE PUSH1 0x4 PUSH2 0x17CB JUMP JUMPDEST PUSH2 0xC0D JUMP JUMPDEST PUSH1 0x0 PUSH1 0x1 PUSH1 0x1 PUSH1 0xE0 SHL SUB NOT DUP3 AND PUSH4 0x7965DB0B PUSH1 0xE0 SHL EQ DUP1 PUSH2 0x441 JUMPI POP PUSH4 0x1FFC9A7 PUSH1 0xE0 SHL PUSH1 0x1 PUSH1 0x1 PUSH1 0xE0 SHL SUB NOT DUP4 AND EQ JUMPDEST SWAP3 SWAP2 POP POP JUMP JUMPDEST PUSH1 0x0 PUSH2 0x451 PUSH2 0xC29 JUMP JUMPDEST PUSH1 0x1 PUSH1 0x1 PUSH1 0xA0 SHL SUB DUP7 AND PUSH2 0x4A4 JUMPI PUSH1 0x40 MLOAD PUSH3 0x461BCD PUSH1 0xE5 SHL DUP2 MSTORE PUSH1 0x20 PUSH1 0x4 DUP3 ADD MSTORE PUSH1 0x15 PUSH1 0x24 DUP3 ADD MSTORE PUSH21 0x496E76616C6964206163746F722061646472657373 PUSH1 0x58 SHL PUSH1 0x44 DUP3 ADD MSTORE PUSH1 0x64 ADD JUMPDEST PUSH1 0x40 MLOAD DUP1 SWAP2 SUB SWAP1 REVERT JUMPDEST DUP5 PUSH2 0x4E7 JUMPI PUSH1 0x40 MLOAD PUSH3 0x461BCD PUSH1 0xE5 SHL DUP2 MSTORE PUSH1 0x20 PUSH1 0x4 DUP3 ADD MSTORE PUSH1 0x13 PUSH1 0x24 DUP3 ADD MSTORE PUSH19 0x125B9D985B1A59081C995CDBDD5C98D9481251 PUSH1 0x6A SHL PUSH1 0x44 DUP3 ADD MSTORE PUSH1 0x64 ADD PUSH2 0x49B JUMP JUMPDEST PUSH2 0x4F4 PUSH1 0x0 DUP8 DUP8 DUP8 PUSH2 0xC61 JUMP JUMPDEST SWAP1 POP PUSH1 0x1 PUSH1 0x1 PUSH1 0xA0 SHL SUB DUP7 AND PUSH1 0x0 DUP3 PUSH32 0xF0DEA17F9B46824DD1389DAE394FB01B4A036EBD544ADE9DC4D7490B552038AE DUP9 TIMESTAMP DUP10 DUP10 DUP10 PUSH1 0x40 MLOAD PUSH2 0x53A SWAP6 SWAP5 SWAP4 SWAP3 SWAP2 SWAP1 PUSH2 0x1A2F JUMP JUMPDEST PUSH1 0x40 MLOAD DUP1 SWAP2 SUB SWAP1 LOG4 PUSH2 0x559 PUSH1 0x1 PUSH1 0x0 DUP1 MLOAD PUSH1 0x20 PUSH2 0x1C7E DUP4 CODECOPY DUP2 MLOAD SWAP2 MSTORE SSTORE JUMP JUMPDEST SWAP6 SWAP5 POP POP POP POP POP JUMP JUMPDEST PUSH1 0x0 DUP2 DUP2 MSTORE PUSH1 0x1 PUSH1 0x20 SWAP1 DUP2 MSTORE PUSH1 0x40 SWAP2 DUP3 SWAP1 KECCAK256 DUP1 SLOAD DUP4 MLOAD DUP2 DUP5 MUL DUP2 ADD DUP5 ADD SWAP1 SWAP5 MSTORE DUP1 DUP5 MSTORE PUSH1 0x60 SWAP4 SWAP3 DUP4 ADD DUP3 DUP3 DUP1 ISZERO PUSH2 0x5B8 JUMPI PUSH1 0x20 MUL DUP3 ADD SWAP2 SWAP1 PUSH1 0x0 MSTORE PUSH1 0x20 PUSH1 0x0 KECCAK256 SWAP1 JUMPDEST DUP2 SLOAD DUP2 MSTORE PUSH1 0x20 ADD SWAP1 PUSH1 0x1 ADD SWAP1 DUP1 DUP4 GT PUSH2 0x5A4 JUMPI JUMPDEST POP POP POP POP POP SWAP1 POP SWAP2 SWAP1 POP JUMP JUMPDEST PUSH1 0x0 SWAP1 DUP2 MSTORE PUSH1 0x0 DUP1 MLOAD PUSH1 0x20 PUSH2 0x1C5E DUP4 CODECOPY DUP2 MLOAD SWAP2 MSTORE PUSH1 0x20 MSTORE PUSH1 0x40 SWAP1 KECCAK256 PUSH1 0x1 ADD SLOAD SWAP1 JUMP JUMPDEST PUSH1 0x0 PUSH2 0x5F0 PUSH2 0xC29 JUMP JUMPDEST DUP4 PUSH2 0x630 JUMPI PUSH1 0x40 MLOAD PUSH3 0x461BCD PUSH1 0xE5 SHL DUP2 MSTORE PUSH1 0x20 PUSH1 0x4 DUP3 ADD MSTORE PUSH1 0x10 PUSH1 0x24 DUP3 ADD MSTORE PUSH16 0x125B9D985B1A59081B5BD9195B081251 PUSH1 0x82 SHL PUSH1 0x44 DUP3 ADD MSTORE PUSH1 0x64 ADD PUSH2 0x49B JUMP JUMPDEST DUP3 PUSH2 0x671 JUMPI PUSH1 0x40 MLOAD PUSH3 0x461BCD PUSH1 0xE5 SHL DUP2 MSTORE PUSH1 0x20 PUSH1 0x4 DUP3 ADD MSTORE PUSH1 0x11 PUSH1 0x24 DUP3 ADD MSTORE PUSH17 0x125B9D985B1A59081C9958DBDC99081251 PUSH1 0x7A SHL PUSH1 0x44 DUP3 ADD MSTORE PUSH1 0x64 ADD PUSH2 0x49B JUMP JUMPDEST PUSH2 0x2710 DUP3 PUSH2 0xFFFF AND GT ISZERO PUSH2 0x6C7 JUMPI PUSH1 0x40 MLOAD PUSH3 0x461BCD PUSH1 0xE5 SHL DUP2 MSTORE PUSH1 0x20 PUSH1 0x4 DUP3 ADD MSTORE PUSH1 0x18 PUSH1 0x24 DUP3 ADD MSTORE PUSH32 0x496E76616C696420636F6E666964656E63652073636F72650000000000000000 PUSH1 0x44 DUP3 ADD MSTORE PUSH1 0x64 ADD PUSH2 0x49B JUMP JUMPDEST PUSH2 0x6D6 PUSH1 0x2 PUSH1 0x0 DUP6 PUSH1 0x1 PUSH2 0xC61 JUMP JUMPDEST SWAP1 POP PUSH1 0x0 PUSH1 0x2 DUP3 PUSH32 0xF0DEA17F9B46824DD1389DAE394FB01B4A036EBD544ADE9DC4D7490B552038AE DUP7 TIMESTAMP PUSH1 0x1 PUSH2 0x70B DUP12 PUSH2 0xE2A JUMP JUMPDEST PUSH2 0x714 DUP11 PUSH2 0xF59 JUMP JUMPDEST PUSH1 0x40 MLOAD PUSH1 0x20 ADD PUSH2 0x725 SWAP3 SWAP2 SWAP1 PUSH2 0x1A7E JUMP JUMPDEST PUSH1 0x40 DUP1 MLOAD PUSH1 0x1F NOT DUP2 DUP5 SUB ADD DUP2 MSTORE SWAP1 DUP3 SWAP1 MSTORE PUSH2 0x742 SWAP5 SWAP4 SWAP3 SWAP2 PUSH2 0x1AD9 JUMP JUMPDEST PUSH1 0x40 MLOAD DUP1 SWAP2 SUB SWAP1 LOG4 PUSH2 0x761 PUSH1 0x1 PUSH1 0x0 DUP1 MLOAD PUSH1 0x20 PUSH2 0x1C7E DUP4 CODECOPY DUP2 MLOAD SWAP2 MSTORE SSTORE JUMP JUMPDEST SWAP4 SWAP3 POP POP POP JUMP JUMPDEST PUSH2 0x771 DUP3 PUSH2 0x5C4 JUMP JUMPDEST PUSH2 0x77A DUP2 PUSH2 0x1098 JUMP JUMPDEST PUSH2 0x784 DUP4 DUP4 PUSH2 0x10A5 JUMP JUMPDEST POP POP POP POP JUMP JUMPDEST PUSH1 0x1 PUSH1 0x1 PUSH1 0xA0 SHL SUB DUP2 AND CALLER EQ PUSH2 0x7B3 JUMPI PUSH1 0x40 MLOAD PUSH4 0x334BD919 PUSH1 0xE1 SHL DUP2 MSTORE PUSH1 0x4 ADD PUSH1 0x40 MLOAD DUP1 SWAP2 SUB SWAP1 REVERT JUMPDEST PUSH2 0x7BD DUP3 DUP3 PUSH2 0x1151 JUMP JUMPDEST POP POP POP JUMP JUMPDEST PUSH2 0x7CA PUSH2 0x11CD JUMP JUMPDEST PUSH2 0x7D3 DUP3 PUSH2 0x1274 JUMP JUMPDEST PUSH2 0x7DD DUP3 DUP3 PUSH2 0x129E JUMP JUMPDEST POP POP JUMP JUMPDEST PUSH1 0x40 DUP1 MLOAD PUSH1 0xC0 DUP2 ADD DUP3 MSTORE PUSH1 0x0 DUP1 DUP3 MSTORE PUSH1 0x20 DUP3 ADD DUP2 SWAP1 MSTORE SWAP2 DUP2 ADD DUP3 SWAP1 MSTORE PUSH1 0x60 DUP2 ADD DUP3 SWAP1 MSTORE PUSH1 0x80 DUP2 ADD DUP3 SWAP1 MSTORE PUSH1 0xA0 DUP2 ADD SWAP2 SWAP1 SWAP2 MSTORE PUSH1 0x0 DUP3 DUP2 MSTORE PUSH1 0x20 DUP2 DUP2 MSTORE PUSH1 0x40 SWAP2 DUP3 SWAP1 KECCAK256 DUP3 MLOAD PUSH1 0xC0 DUP2 ADD SWAP1 SWAP4 MSTORE DUP1 SLOAD DUP4 MSTORE PUSH1 0x1 DUP2 ADD SLOAD SWAP1 SWAP2 DUP4 ADD SWAP1 PUSH1 0xFF AND PUSH1 0x3 DUP2 GT ISZERO PUSH2 0x84E JUMPI PUSH2 0x84E PUSH2 0x18CE JUMP JUMPDEST PUSH1 0x3 DUP2 GT ISZERO PUSH2 0x85F JUMPI PUSH2 0x85F PUSH2 0x18CE JUMP JUMPDEST DUP2 MSTORE PUSH1 0x1 DUP3 ADD SLOAD PUSH2 0x100 SWAP1 DIV PUSH1 0x1 PUSH1 0x1 PUSH1 0xA0 SHL SUB AND PUSH1 0x20 DUP3 ADD MSTORE PUSH1 0x2 DUP3 ADD SLOAD PUSH1 0x40 DUP3 ADD MSTORE PUSH1 0x3 SWAP1 SWAP2 ADD SLOAD PUSH1 0x1 PUSH1 0x1 PUSH1 0x40 SHL SUB DUP2 AND PUSH1 0x60 DUP4 ADD MSTORE PUSH1 0x1 PUSH1 0x40 SHL SWAP1 DIV PUSH1 0xFF AND ISZERO ISZERO PUSH1 0x80 SWAP1 SWAP2 ADD MSTORE DUP1 MLOAD SWAP1 SWAP2 POP PUSH2 0x8F3 JUMPI PUSH1 0x40 MLOAD PUSH3 0x461BCD PUSH1 0xE5 SHL DUP2 MSTORE PUSH1 0x20 PUSH1 0x4 DUP3 ADD MSTORE PUSH1 0x15 PUSH1 0x24 DUP3 ADD MSTORE PUSH21 0x105D591A5D08195B9D1C9E481B9BDD08199BDD5B99 PUSH1 0x5A SHL PUSH1 0x44 DUP3 ADD MSTORE PUSH1 0x64 ADD PUSH2 0x49B JUMP JUMPDEST SWAP2 SWAP1 POP JUMP JUMPDEST PUSH1 0x0 PUSH2 0x902 PUSH2 0x135B JUMP JUMPDEST POP PUSH1 0x0 DUP1 MLOAD PUSH1 0x20 PUSH2 0x1C3E DUP4 CODECOPY DUP2 MLOAD SWAP2 MSTORE SWAP1 JUMP JUMPDEST PUSH1 0x1 PUSH1 0x1 PUSH1 0xA0 SHL SUB DUP2 AND PUSH1 0x0 SWAP1 DUP2 MSTORE PUSH1 0x2 PUSH1 0x20 SWAP1 DUP2 MSTORE PUSH1 0x40 SWAP2 DUP3 SWAP1 KECCAK256 DUP1 SLOAD DUP4 MLOAD DUP2 DUP5 MUL DUP2 ADD DUP5 ADD SWAP1 SWAP5 MSTORE DUP1 DUP5 MSTORE PUSH1 0x60 SWAP4 SWAP3 DUP4 ADD DUP3 DUP3 DUP1 ISZERO PUSH2 0x5B8 JUMPI PUSH1 0x20 MUL DUP3 ADD SWAP2 SWAP1 PUSH1 0x0 MSTORE PUSH1 0x20 PUSH1 0x0 KECCAK256 SWAP1 DUP2 SLOAD DUP2 MSTORE PUSH1 0x20 ADD SWAP1 PUSH1 0x1 ADD SWAP1 DUP1 DUP4 GT PUSH2 0x5A4 JUMPI POP POP POP POP POP SWAP1 POP SWAP2 SWAP1 POP JUMP JUMPDEST PUSH1 0x0 PUSH2 0x989 PUSH2 0xC29 JUMP JUMPDEST PUSH1 0x1 PUSH1 0x1 PUSH1 0xA0 SHL SUB DUP6 AND PUSH2 0x9D7 JUMPI PUSH1 0x40 MLOAD PUSH3 0x461BCD PUSH1 0xE5 SHL DUP2 MSTORE PUSH1 0x20 PUSH1 0x4 DUP3 ADD MSTORE PUSH1 0x15 PUSH1 0x24 DUP3 ADD MSTORE PUSH21 0x496E76616C6964206163746F722061646472657373 PUSH1 0x58 SHL PUSH1 0x44 DUP3 ADD MSTORE PUSH1 0x64 ADD PUSH2 0x49B JUMP JUMPDEST DUP4 PUSH2 0xA19 JUMPI PUSH1 0x40 MLOAD PUSH3 0x461BCD PUSH1 0xE5 SHL DUP2 MSTORE PUSH1 0x20 PUSH1 0x4 DUP3 ADD MSTORE PUSH1 0x12 PUSH1 0x24 DUP3 ADD MSTORE PUSH18 0x125B9D985B1A590818DBDB9CD95B9D081251 PUSH1 0x72 SHL PUSH1 0x44 DUP3 ADD MSTORE PUSH1 0x64 ADD PUSH2 0x49B JUMP JUMPDEST PUSH2 0xA27 PUSH1 0x1 DUP7 DUP7 PUSH1 0x1 PUSH2 0xC61 JUMP JUMPDEST SWAP1 POP PUSH1 0x1 PUSH1 0x1 PUSH1 0xA0 SHL SUB DUP6 AND PUSH1 0x1 DUP3 PUSH32 0xF0DEA17F9B46824DD1389DAE394FB01B4A036EBD544ADE9DC4D7490B552038AE DUP8 TIMESTAMP PUSH1 0x1 DUP10 DUP10 PUSH1 0x40 MLOAD PUSH2 0xA6E SWAP6 SWAP5 SWAP4 SWAP3 SWAP2 SWAP1 PUSH2 0x1A2F JUMP JUMPDEST PUSH1 0x40 MLOAD DUP1 SWAP2 SUB SWAP1 LOG4 PUSH2 0xA8D PUSH1 0x1 PUSH1 0x0 DUP1 MLOAD PUSH1 0x20 PUSH2 0x1C7E DUP4 CODECOPY DUP2 MLOAD SWAP2 MSTORE SSTORE JUMP JUMPDEST SWAP5 SWAP4 POP POP POP POP JUMP JUMPDEST PUSH1 0x0 SWAP2 DUP3 MSTORE PUSH1 0x0 DUP1 MLOAD PUSH1 0x20 PUSH2 0x1C5E DUP4 CODECOPY DUP2 MLOAD SWAP2 MSTORE PUSH1 0x20 SWAP1 DUP2 MSTORE PUSH1 0x40 DUP1 DUP5 KECCAK256 PUSH1 0x1 PUSH1 0x1 PUSH1 0xA0 SHL SUB SWAP4 SWAP1 SWAP4 AND DUP5 MSTORE SWAP2 SWAP1 MSTORE SWAP1 KECCAK256 SLOAD PUSH1 0xFF AND SWAP1 JUMP JUMPDEST PUSH1 0x0 PUSH2 0xAD7 PUSH2 0x13A4 JUMP JUMPDEST DUP1 SLOAD SWAP1 SWAP2 POP PUSH1 0xFF PUSH1 0x1 PUSH1 0x40 SHL DUP3 DIV AND ISZERO SWAP1 PUSH1 0x1 PUSH1 0x1 PUSH1 0x40 SHL SUB AND PUSH1 0x0 DUP2 ISZERO DUP1 ISZERO PUSH2 0xAFE JUMPI POP DUP3 JUMPDEST SWAP1 POP PUSH1 0x0 DUP3 PUSH1 0x1 PUSH1 0x1 PUSH1 0x40 SHL SUB AND PUSH1 0x1 EQ DUP1 ISZERO PUSH2 0xB1A JUMPI POP ADDRESS EXTCODESIZE ISZERO JUMPDEST SWAP1 POP DUP2 ISZERO DUP1 ISZERO PUSH2 0xB28 JUMPI POP DUP1 ISZERO JUMPDEST ISZERO PUSH2 0xB46 JUMPI PUSH1 0x40 MLOAD PUSH4 0xF92EE8A9 PUSH1 0xE0 SHL DUP2 MSTORE PUSH1 0x4 ADD PUSH1 0x40 MLOAD DUP1 SWAP2 SUB SWAP1 REVERT JUMPDEST DUP5 SLOAD PUSH8 0xFFFFFFFFFFFFFFFF NOT AND PUSH1 0x1 OR DUP6 SSTORE DUP4 ISZERO PUSH2 0xB70 JUMPI DUP5 SLOAD PUSH1 0xFF PUSH1 0x40 SHL NOT AND PUSH1 0x1 PUSH1 0x40 SHL OR DUP6 SSTORE JUMPDEST PUSH2 0xB78 PUSH2 0x13CD JUMP JUMPDEST PUSH2 0xB80 PUSH2 0x13CD JUMP JUMPDEST PUSH2 0xB88 PUSH2 0x13D5 JUMP JUMPDEST PUSH2 0xB93 PUSH1 0x0 DUP8 PUSH2 0x10A5 JUMP JUMPDEST POP PUSH2 0xBBE PUSH32 0xA49807205CE4D355092EF5A8A18F56E8913CF4A201FBE287825B095693C21775 DUP8 PUSH2 0x10A5 JUMP JUMPDEST POP DUP4 ISZERO PUSH2 0xC05 JUMPI DUP5 SLOAD PUSH1 0xFF PUSH1 0x40 SHL NOT AND DUP6 SSTORE PUSH1 0x40 MLOAD PUSH1 0x1 DUP2 MSTORE PUSH32 0xC7F505B2F371AE2175EE4913F4499E1F2633A7B5936321EED1CDAEB6115181D2 SWAP1 PUSH1 0x20 ADD PUSH1 0x40 MLOAD DUP1 SWAP2 SUB SWAP1 LOG1 JUMPDEST POP POP POP POP POP POP JUMP JUMPDEST PUSH2 0xC16 DUP3 PUSH2 0x5C4 JUMP JUMPDEST PUSH2 0xC1F DUP2 PUSH2 0x1098 JUMP JUMPDEST PUSH2 0x784 DUP4 DUP4 PUSH2 0x1151 JUMP JUMPDEST PUSH1 0x0 DUP1 MLOAD PUSH1 0x20 PUSH2 0x1C7E DUP4 CODECOPY DUP2 MLOAD SWAP2 MSTORE DUP1 SLOAD PUSH1 0x1 NOT ADD PUSH2 0xC5B JUMPI PUSH1 0x40 MLOAD PUSH4 0x3EE5AEB5 PUSH1 0xE0 SHL DUP2 MSTORE PUSH1 0x4 ADD PUSH1 0x40 MLOAD DUP1 SWAP2 SUB SWAP1 REVERT JUMPDEST PUSH1 0x2 SWAP1 SSTORE JUMP JUMPDEST PUSH1 0x0 DUP4 DUP4 TIMESTAMP NUMBER GAS PUSH1 0x40 MLOAD PUSH1 0x60 SWAP6 SWAP1 SWAP6 SHL PUSH12 0xFFFFFFFFFFFFFFFFFFFFFFFF NOT AND PUSH1 0x20 DUP7 ADD MSTORE PUSH1 0x34 DUP6 ADD SWAP4 SWAP1 SWAP4 MSTORE PUSH1 0x54 DUP5 ADD SWAP2 SWAP1 SWAP2 MSTORE PUSH1 0x74 DUP4 ADD MSTORE PUSH1 0x94 DUP3 ADD MSTORE PUSH1 0xB4 ADD PUSH1 0x40 MLOAD PUSH1 0x20 DUP2 DUP4 SUB SUB DUP2 MSTORE SWAP1 PUSH1 0x40 MSTORE DUP1 MLOAD SWAP1 PUSH1 0x20 ADD KECCAK256 SWAP1 POP PUSH1 0x0 PUSH1 0x40 MLOAD DUP1 PUSH1 0xC0 ADD PUSH1 0x40 MSTORE DUP1 DUP4 DUP2 MSTORE PUSH1 0x20 ADD DUP8 PUSH1 0x3 DUP2 GT ISZERO PUSH2 0xCDF JUMPI PUSH2 0xCDF PUSH2 0x18CE JUMP JUMPDEST DUP2 MSTORE PUSH1 0x20 ADD DUP7 PUSH1 0x1 PUSH1 0x1 PUSH1 0xA0 SHL SUB AND DUP2 MSTORE PUSH1 0x20 ADD DUP6 DUP2 MSTORE PUSH1 0x20 ADD TIMESTAMP PUSH1 0x1 PUSH1 0x1 PUSH1 0x40 SHL SUB AND DUP2 MSTORE PUSH1 0x20 ADD DUP5 ISZERO ISZERO DUP2 MSTORE POP SWAP1 POP DUP1 PUSH1 0x0 DUP1 DUP5 DUP2 MSTORE PUSH1 0x20 ADD SWAP1 DUP2 MSTORE PUSH1 0x20 ADD PUSH1 0x0 KECCAK256 PUSH1 0x0 DUP3 ADD MLOAD DUP2 PUSH1 0x0 ADD SSTORE PUSH1 0x20 DUP3 ADD MLOAD DUP2 PUSH1 0x1 ADD PUSH1 0x0 PUSH2 0x100 EXP DUP2 SLOAD DUP2 PUSH1 0xFF MUL NOT AND SWAP1 DUP4 PUSH1 0x3 DUP2 GT ISZERO PUSH2 0xD57 JUMPI PUSH2 0xD57 PUSH2 0x18CE JUMP JUMPDEST MUL OR SWAP1 SSTORE POP PUSH1 0x40 DUP3 DUP2 ADD MLOAD PUSH1 0x1 DUP1 DUP5 ADD DUP1 SLOAD PUSH1 0x1 PUSH1 0x1 PUSH1 0xA0 SHL SUB SWAP4 DUP5 AND PUSH2 0x100 MUL PUSH2 0x100 PUSH1 0x1 PUSH1 0xA8 SHL SUB NOT SWAP1 SWAP2 AND OR SWAP1 SSTORE PUSH1 0x60 DUP6 ADD MLOAD PUSH1 0x2 DUP1 DUP7 ADD SWAP2 SWAP1 SWAP2 SSTORE PUSH1 0x80 DUP7 ADD MLOAD PUSH1 0x3 SWAP1 SWAP6 ADD DUP1 SLOAD PUSH1 0xA0 SWAP1 SWAP8 ADD MLOAD ISZERO ISZERO PUSH1 0x1 PUSH1 0x40 SHL MUL PUSH9 0xFFFFFFFFFFFFFFFFFF NOT SWAP1 SWAP8 AND PUSH1 0x1 PUSH1 0x1 PUSH1 0x40 SHL SUB SWAP1 SWAP7 AND SWAP6 SWAP1 SWAP6 OR SWAP6 SWAP1 SWAP6 OR SWAP1 SWAP4 SSTORE PUSH1 0x0 DUP9 DUP2 MSTORE PUSH1 0x20 DUP5 DUP2 MSTORE DUP4 DUP3 KECCAK256 DUP1 SLOAD DUP1 DUP8 ADD DUP3 SSTORE SWAP1 DUP4 MSTORE DUP2 DUP4 KECCAK256 ADD DUP9 SWAP1 SSTORE SWAP2 DUP11 AND DUP2 MSTORE SWAP4 DUP2 MSTORE SWAP1 DUP4 KECCAK256 DUP1 SLOAD SWAP3 DUP4 ADD DUP2 SSTORE DUP4 MSTORE SWAP1 SWAP2 KECCAK256 ADD DUP3 SWAP1 SSTORE POP SWAP5 SWAP4 POP POP POP POP JUMP JUMPDEST PUSH1 0x1 PUSH1 0x0 DUP1 MLOAD PUSH1 0x20 PUSH2 0x1C7E DUP4 CODECOPY DUP2 MLOAD SWAP2 MSTORE SSTORE JUMP JUMPDEST PUSH1 0x60 PUSH1 0x0 JUMPDEST PUSH1 0x20 DUP2 PUSH1 0xFF AND LT DUP1 ISZERO PUSH2 0xE63 JUMPI POP DUP3 DUP2 PUSH1 0xFF AND PUSH1 0x20 DUP2 LT PUSH2 0xE52 JUMPI PUSH2 0xE52 PUSH2 0x1B13 JUMP JUMPDEST BYTE PUSH1 0xF8 SHL PUSH1 0x1 PUSH1 0x1 PUSH1 0xF8 SHL SUB NOT AND ISZERO ISZERO JUMPDEST ISZERO PUSH2 0xE7A JUMPI DUP1 PUSH2 0xE72 DUP2 PUSH2 0x1B3F JUMP JUMPDEST SWAP2 POP POP PUSH2 0xE2F JUMP JUMPDEST PUSH1 0x0 DUP2 PUSH1 0xFF AND PUSH1 0x1 PUSH1 0x1 PUSH1 0x40 SHL SUB DUP2 GT ISZERO PUSH2 0xE97 JUMPI PUSH2 0xE97 PUSH2 0x17F7 JUMP JUMPDEST PUSH1 0x40 MLOAD SWAP1 DUP1 DUP3 MSTORE DUP1 PUSH1 0x1F ADD PUSH1 0x1F NOT AND PUSH1 0x20 ADD DUP3 ADD PUSH1 0x40 MSTORE DUP1 ISZERO PUSH2 0xEC1 JUMPI PUSH1 0x20 DUP3 ADD DUP2 DUP1 CALLDATASIZE DUP4 CALLDATACOPY ADD SWAP1 POP JUMPDEST POP SWAP1 POP PUSH1 0x0 SWAP2 POP JUMPDEST PUSH1 0x20 DUP3 PUSH1 0xFF AND LT DUP1 ISZERO PUSH2 0xEFD JUMPI POP DUP4 DUP3 PUSH1 0xFF AND PUSH1 0x20 DUP2 LT PUSH2 0xEEC JUMPI PUSH2 0xEEC PUSH2 0x1B13 JUMP JUMPDEST BYTE PUSH1 0xF8 SHL PUSH1 0x1 PUSH1 0x1 PUSH1 0xF8 SHL SUB NOT AND ISZERO ISZERO JUMPDEST ISZERO PUSH2 0x761 JUMPI DUP4 DUP3 PUSH1 0xFF AND PUSH1 0x20 DUP2 LT PUSH2 0xF17 JUMPI PUSH2 0xF17 PUSH2 0x1B13 JUMP JUMPDEST BYTE PUSH1 0xF8 SHL DUP2 DUP4 PUSH1 0xFF AND DUP2 MLOAD DUP2 LT PUSH2 0xF30 JUMPI PUSH2 0xF30 PUSH2 0x1B13 JUMP JUMPDEST PUSH1 0x20 ADD ADD SWAP1 PUSH1 0x1 PUSH1 0x1 PUSH1 0xF8 SHL SUB NOT AND SWAP1 DUP2 PUSH1 0x0 BYTE SWAP1 MSTORE8 POP DUP2 PUSH2 0xF51 DUP2 PUSH2 0x1B3F JUMP JUMPDEST SWAP3 POP POP PUSH2 0xEC9 JUMP JUMPDEST PUSH1 0x60 DUP2 PUSH2 0xFFFF AND PUSH1 0x0 SUB PUSH2 0xF84 JUMPI POP POP PUSH1 0x40 DUP1 MLOAD DUP1 DUP3 ADD SWAP1 SWAP2 MSTORE PUSH1 0x1 DUP2 MSTORE PUSH1 0x3 PUSH1 0xFC SHL PUSH1 0x20 DUP3 ADD MSTORE SWAP1 JUMP JUMPDEST DUP2 PUSH1 0x0 JUMPDEST PUSH2 0xFFFF DUP3 AND ISZERO PUSH2 0xFB2 JUMPI DUP1 PUSH2 0xF9C DUP2 PUSH2 0x1B5E JUMP JUMPDEST SWAP2 POP PUSH2 0xFAB SWAP1 POP PUSH1 0xA DUP4 PUSH2 0x1B7F JUMP JUMPDEST SWAP2 POP PUSH2 0xF88 JUMP JUMPDEST PUSH1 0x0 DUP2 PUSH2 0xFFFF AND PUSH1 0x1 PUSH1 0x1 PUSH1 0x40 SHL SUB DUP2 GT ISZERO PUSH2 0xFD0 JUMPI PUSH2 0xFD0 PUSH2 0x17F7 JUMP JUMPDEST PUSH1 0x40 MLOAD SWAP1 DUP1 DUP3 MSTORE DUP1 PUSH1 0x1F ADD PUSH1 0x1F NOT AND PUSH1 0x20 ADD DUP3 ADD PUSH1 0x40 MSTORE DUP1 ISZERO PUSH2 0xFFA JUMPI PUSH1 0x20 DUP3 ADD DUP2 DUP1 CALLDATASIZE DUP4 CALLDATACOPY ADD SWAP1 POP JUMPDEST POP SWAP1 POP DUP2 JUMPDEST PUSH2 0xFFFF DUP7 AND ISZERO PUSH2 0x108F JUMPI PUSH2 0x1014 PUSH1 0x1 DUP3 PUSH2 0x1BAE JUMP JUMPDEST SWAP1 POP PUSH1 0x0 PUSH2 0x1023 PUSH1 0xA DUP9 PUSH2 0x1B7F JUMP JUMPDEST PUSH2 0x102E SWAP1 PUSH1 0xA PUSH2 0x1BC9 JUMP JUMPDEST PUSH2 0x1038 SWAP1 DUP9 PUSH2 0x1BAE JUMP JUMPDEST PUSH2 0x1043 SWAP1 PUSH1 0x30 PUSH2 0x1BEF JUMP JUMPDEST SWAP1 POP PUSH1 0x0 DUP2 PUSH1 0xF8 SHL SWAP1 POP DUP1 DUP5 DUP5 PUSH2 0xFFFF AND DUP2 MLOAD DUP2 LT PUSH2 0x1064 JUMPI PUSH2 0x1064 PUSH2 0x1B13 JUMP JUMPDEST PUSH1 0x20 ADD ADD SWAP1 PUSH1 0x1 PUSH1 0x1 PUSH1 0xF8 SHL SUB NOT AND SWAP1 DUP2 PUSH1 0x0 BYTE SWAP1 MSTORE8 POP PUSH2 0x1086 PUSH1 0xA DUP10 PUSH2 0x1B7F JUMP JUMPDEST SWAP8 POP POP POP PUSH2 0xFFF JUMP JUMPDEST POP SWAP5 SWAP4 POP POP POP POP JUMP JUMPDEST PUSH2 0x10A2 DUP2 CALLER PUSH2 0x13E5 JUMP JUMPDEST POP JUMP JUMPDEST PUSH1 0x0 PUSH1 0x0 DUP1 MLOAD PUSH1 0x20 PUSH2 0x1C5E DUP4 CODECOPY DUP2 MLOAD SWAP2 MSTORE PUSH2 0x10C0 DUP5 DUP5 PUSH2 0xA95 JUMP JUMPDEST PUSH2 0x1140 JUMPI PUSH1 0x0 DUP5 DUP2 MSTORE PUSH1 0x20 DUP3 DUP2 MSTORE PUSH1 0x40 DUP1 DUP4 KECCAK256 PUSH1 0x1 PUSH1 0x1 PUSH1 0xA0 SHL SUB DUP8 AND DUP5 MSTORE SWAP1 SWAP2 MSTORE SWAP1 KECCAK256 DUP1 SLOAD PUSH1 0xFF NOT AND PUSH1 0x1 OR SWAP1 SSTORE PUSH2 0x10F6 CALLER SWAP1 JUMP JUMPDEST PUSH1 0x1 PUSH1 0x1 PUSH1 0xA0 SHL SUB AND DUP4 PUSH1 0x1 PUSH1 0x1 PUSH1 0xA0 SHL SUB AND DUP6 PUSH32 0x2F8788117E7EFF1D82E926EC794901D17C78024A50270940304540A733656F0D PUSH1 0x40 MLOAD PUSH1 0x40 MLOAD DUP1 SWAP2 SUB SWAP1 LOG4 PUSH1 0x1 SWAP2 POP POP PUSH2 0x441 JUMP JUMPDEST PUSH1 0x0 SWAP2 POP POP PUSH2 0x441 JUMP JUMPDEST POP SWAP3 SWAP2 POP POP JUMP JUMPDEST PUSH1 0x0 PUSH1 0x0 DUP1 MLOAD PUSH1 0x20 PUSH2 0x1C5E DUP4 CODECOPY DUP2 MLOAD SWAP2 MSTORE PUSH2 0x116C DUP5 DUP5 PUSH2 0xA95 JUMP JUMPDEST ISZERO PUSH2 0x1140 JUMPI PUSH1 0x0 DUP5 DUP2 MSTORE PUSH1 0x20 DUP3 DUP2 MSTORE PUSH1 0x40 DUP1 DUP4 KECCAK256 PUSH1 0x1 PUSH1 0x1 PUSH1 0xA0 SHL SUB DUP8 AND DUP1 DUP6 MSTORE SWAP3 MSTORE DUP1 DUP4 KECCAK256 DUP1 SLOAD PUSH1 0xFF NOT AND SWAP1 SSTORE MLOAD CALLER SWAP3 DUP8 SWAP2 PUSH32 0xF6391F5C32D9C69D2A47EA670B442974B53935D1EDC7FD64EB21E047A839171B SWAP2 SWAP1 LOG4 PUSH1 0x1 SWAP2 POP POP PUSH2 0x441 JUMP JUMPDEST ADDRESS PUSH1 0x1 PUSH1 0x1 PUSH1 0xA0 SHL SUB PUSH32 0x0 AND EQ DUP1 PUSH2 0x1254 JUMPI POP PUSH32 0x0 PUSH1 0x1 PUSH1 0x1 PUSH1 0xA0 SHL SUB AND PUSH2 0x1248 PUSH1 0x0 DUP1 MLOAD PUSH1 0x20 PUSH2 0x1C3E DUP4 CODECOPY DUP2 MLOAD SWAP2 MSTORE SLOAD PUSH1 0x1 PUSH1 0x1 PUSH1 0xA0 SHL SUB AND SWAP1 JUMP JUMPDEST PUSH1 0x1 PUSH1 0x1 PUSH1 0xA0 SHL SUB AND EQ ISZERO JUMPDEST ISZERO PUSH2 0x1272 JUMPI PUSH1 0x40 MLOAD PUSH4 0x703E46DD PUSH1 0xE1 SHL DUP2 MSTORE PUSH1 0x4 ADD PUSH1 0x40 MLOAD DUP1 SWAP2 SUB SWAP1 REVERT JUMPDEST JUMP JUMPDEST PUSH32 0xA49807205CE4D355092EF5A8A18F56E8913CF4A201FBE287825B095693C21775 PUSH2 0x7DD DUP2 PUSH2 0x1098 JUMP JUMPDEST DUP2 PUSH1 0x1 PUSH1 0x1 PUSH1 0xA0 SHL SUB AND PUSH4 0x52D1902D PUSH1 0x40 MLOAD DUP2 PUSH4 0xFFFFFFFF AND PUSH1 0xE0 SHL DUP2 MSTORE PUSH1 0x4 ADD PUSH1 0x20 PUSH1 0x40 MLOAD DUP1 DUP4 SUB DUP2 DUP7 GAS STATICCALL SWAP3 POP POP POP DUP1 ISZERO PUSH2 0x12F8 JUMPI POP PUSH1 0x40 DUP1 MLOAD PUSH1 0x1F RETURNDATASIZE SWAP1 DUP2 ADD PUSH1 0x1F NOT AND DUP3 ADD SWAP1 SWAP3 MSTORE PUSH2 0x12F5 SWAP2 DUP2 ADD SWAP1 PUSH2 0x1C08 JUMP JUMPDEST PUSH1 0x1 JUMPDEST PUSH2 0x1320 JUMPI PUSH1 0x40 MLOAD PUSH4 0x4C9C8CE3 PUSH1 0xE0 SHL DUP2 MSTORE PUSH1 0x1 PUSH1 0x1 PUSH1 0xA0 SHL SUB DUP4 AND PUSH1 0x4 DUP3 ADD MSTORE PUSH1 0x24 ADD PUSH2 0x49B JUMP JUMPDEST PUSH1 0x0 DUP1 MLOAD PUSH1 0x20 PUSH2 0x1C3E DUP4 CODECOPY DUP2 MLOAD SWAP2 MSTORE DUP2 EQ PUSH2 0x1351 JUMPI PUSH1 0x40 MLOAD PUSH4 0x2A875269 PUSH1 0xE2 SHL DUP2 MSTORE PUSH1 0x4 DUP2 ADD DUP3 SWAP1 MSTORE PUSH1 0x24 ADD PUSH2 0x49B JUMP JUMPDEST PUSH2 0x7BD DUP4 DUP4 PUSH2 0x141E JUMP JUMPDEST ADDRESS PUSH1 0x1 PUSH1 0x1 PUSH1 0xA0 SHL SUB PUSH32 0x0 AND EQ PUSH2 0x1272 JUMPI PUSH1 0x40 MLOAD PUSH4 0x703E46DD PUSH1 0xE1 SHL DUP2 MSTORE PUSH1 0x4 ADD PUSH1 0x40 MLOAD DUP1 SWAP2 SUB SWAP1 REVERT JUMPDEST PUSH1 0x0 DUP1 PUSH32 0xF0C57E16840DF040F15088DC2F81FE391C3923BEC73E23A9662EFC9C229C6A00 PUSH2 0x441 JUMP JUMPDEST PUSH2 0x1272 PUSH2 0x1474 JUMP JUMPDEST PUSH2 0x13DD PUSH2 0x1474 JUMP JUMPDEST PUSH2 0x1272 PUSH2 0x1499 JUMP JUMPDEST PUSH2 0x13EF DUP3 DUP3 PUSH2 0xA95 JUMP JUMPDEST PUSH2 0x7DD JUMPI PUSH1 0x40 MLOAD PUSH4 0xE2517D3F PUSH1 0xE0 SHL DUP2 MSTORE PUSH1 0x1 PUSH1 0x1 PUSH1 0xA0 SHL SUB DUP3 AND PUSH1 0x4 DUP3 ADD MSTORE PUSH1 0x24 DUP2 ADD DUP4 SWAP1 MSTORE PUSH1 0x44 ADD PUSH2 0x49B JUMP JUMPDEST PUSH2 0x1427 DUP3 PUSH2 0x14A1 JUMP JUMPDEST PUSH1 0x40 MLOAD PUSH1 0x1 PUSH1 0x1 PUSH1 0xA0 SHL SUB DUP4 AND SWAP1 PUSH32 0xBC7CD75A20EE27FD9ADEBAB32041F755214DBC6BFFA90CC0225B39DA2E5C2D3B SWAP1 PUSH1 0x0 SWAP1 LOG2 DUP1 MLOAD ISZERO PUSH2 0x146C JUMPI PUSH2 0x7BD DUP3 DUP3 PUSH2 0x1506 JUMP JUMPDEST PUSH2 0x7DD PUSH2 0x1573 JUMP JUMPDEST PUSH2 0x147C PUSH2 0x1592 JUMP JUMPDEST PUSH2 0x1272 JUMPI PUSH1 0x40 MLOAD PUSH4 0x1AFCD79F PUSH1 0xE3 SHL DUP2 MSTORE PUSH1 0x4 ADD PUSH1 0x40 MLOAD DUP1 SWAP2 SUB SWAP1 REVERT JUMPDEST PUSH2 0xE16 PUSH2 0x1474 JUMP JUMPDEST DUP1 PUSH1 0x1 PUSH1 0x1 PUSH1 0xA0 SHL SUB AND EXTCODESIZE PUSH1 0x0 SUB PUSH2 0x14D7 JUMPI PUSH1 0x40 MLOAD PUSH4 0x4C9C8CE3 PUSH1 0xE0 SHL DUP2 MSTORE PUSH1 0x1 PUSH1 0x1 PUSH1 0xA0 SHL SUB DUP3 AND PUSH1 0x4 DUP3 ADD MSTORE PUSH1 0x24 ADD PUSH2 0x49B JUMP JUMPDEST PUSH1 0x0 DUP1 MLOAD PUSH1 0x20 PUSH2 0x1C3E DUP4 CODECOPY DUP2 MLOAD SWAP2 MSTORE DUP1 SLOAD PUSH1 0x1 PUSH1 0x1 PUSH1 0xA0 SHL SUB NOT AND PUSH1 0x1 PUSH1 0x1 PUSH1 0xA0 SHL SUB SWAP3 SWAP1 SWAP3 AND SWAP2 SWAP1 SWAP2 OR SWAP1 SSTORE JUMP JUMPDEST PUSH1 0x60 PUSH1 0x0 DUP1 DUP5 PUSH1 0x1 PUSH1 0x1 PUSH1 0xA0 SHL SUB AND DUP5 PUSH1 0x40 MLOAD PUSH2 0x1523 SWAP2 SWAP1 PUSH2 0x1C21 JUMP JUMPDEST PUSH1 0x0 PUSH1 0x40 MLOAD DUP1 DUP4 SUB DUP2 DUP6 GAS DELEGATECALL SWAP2 POP POP RETURNDATASIZE DUP1 PUSH1 0x0 DUP2 EQ PUSH2 0x155E JUMPI PUSH1 0x40 MLOAD SWAP2 POP PUSH1 0x1F NOT PUSH1 0x3F RETURNDATASIZE ADD AND DUP3 ADD PUSH1 0x40 MSTORE RETURNDATASIZE DUP3 MSTORE RETURNDATASIZE PUSH1 0x0 PUSH1 0x20 DUP5 ADD RETURNDATACOPY PUSH2 0x1563 JUMP JUMPDEST PUSH1 0x60 SWAP2 POP JUMPDEST POP SWAP2 POP SWAP2 POP PUSH2 0x559 DUP6 DUP4 DUP4 PUSH2 0x15AC JUMP JUMPDEST CALLVALUE ISZERO PUSH2 0x1272 JUMPI PUSH1 0x40 MLOAD PUSH4 0xB398979F PUSH1 0xE0 SHL DUP2 MSTORE PUSH1 0x4 ADD PUSH1 0x40 MLOAD DUP1 SWAP2 SUB SWAP1 REVERT JUMPDEST PUSH1 0x0 PUSH2 0x159C PUSH2 0x13A4 JUMP JUMPDEST SLOAD PUSH1 0x1 PUSH1 0x40 SHL SWAP1 DIV PUSH1 0xFF AND SWAP2 SWAP1 POP JUMP JUMPDEST PUSH1 0x60 DUP3 PUSH2 0x15C1 JUMPI PUSH2 0x15BC DUP3 PUSH2 0x1608 JUMP JUMPDEST PUSH2 0x761 JUMP JUMPDEST DUP2 MLOAD ISZERO DUP1 ISZERO PUSH2 0x15D8 JUMPI POP PUSH1 0x1 PUSH1 0x1 PUSH1 0xA0 SHL SUB DUP5 AND EXTCODESIZE ISZERO JUMPDEST ISZERO PUSH2 0x1601 JUMPI PUSH1 0x40 MLOAD PUSH4 0x9996B315 PUSH1 0xE0 SHL DUP2 MSTORE PUSH1 0x1 PUSH1 0x1 PUSH1 0xA0 SHL SUB DUP6 AND PUSH1 0x4 DUP3 ADD MSTORE PUSH1 0x24 ADD PUSH2 0x49B JUMP JUMPDEST POP DUP1 PUSH2 0x761 JUMP JUMPDEST DUP1 MLOAD ISZERO PUSH2 0x1617 JUMPI DUP1 MLOAD PUSH1 0x20 DUP3 ADD REVERT JUMPDEST PUSH1 0x40 MLOAD PUSH4 0xD6BDA275 PUSH1 0xE0 SHL DUP2 MSTORE PUSH1 0x4 ADD PUSH1 0x40 MLOAD DUP1 SWAP2 SUB SWAP1 REVERT JUMPDEST PUSH1 0x0 PUSH1 0x20 DUP3 DUP5 SUB SLT ISZERO PUSH2 0x1642 JUMPI PUSH1 0x0 DUP1 REVERT JUMPDEST DUP2 CALLDATALOAD PUSH1 0x1 PUSH1 0x1 PUSH1 0xE0 SHL SUB NOT DUP2 AND DUP2 EQ PUSH2 0x761 JUMPI PUSH1 0x0 DUP1 REVERT JUMPDEST DUP1 CALLDATALOAD PUSH1 0x1 PUSH1 0x1 PUSH1 0xA0 SHL SUB DUP2 AND DUP2 EQ PUSH2 0x8F3 JUMPI PUSH1 0x0 DUP1 REVERT JUMPDEST PUSH1 0x0 DUP1 DUP4 PUSH1 0x1F DUP5 ADD SLT PUSH2 0x1683 JUMPI PUSH1 0x0 DUP1 REVERT JUMPDEST POP DUP2 CALLDATALOAD PUSH1 0x1 PUSH1 0x1 PUSH1 0x40 SHL SUB DUP2 GT ISZERO PUSH2 0x169A JUMPI PUSH1 0x0 DUP1 REVERT JUMPDEST PUSH1 0x20 DUP4 ADD SWAP2 POP DUP4 PUSH1 0x20 DUP3 DUP6 ADD ADD GT ISZERO PUSH2 0x16B2 JUMPI PUSH1 0x0 DUP1 REVERT JUMPDEST SWAP3 POP SWAP3 SWAP1 POP JUMP JUMPDEST PUSH1 0x0 DUP1 PUSH1 0x0 DUP1 PUSH1 0x0 PUSH1 0x80 DUP7 DUP9 SUB SLT ISZERO PUSH2 0x16D1 JUMPI PUSH1 0x0 DUP1 REVERT JUMPDEST PUSH2 0x16DA DUP7 PUSH2 0x165A JUMP JUMPDEST SWAP5 POP PUSH1 0x20 DUP7 ADD CALLDATALOAD SWAP4 POP PUSH1 0x40 DUP7 ADD CALLDATALOAD DUP1 ISZERO ISZERO DUP2 EQ PUSH2 0x16F6 JUMPI PUSH1 0x0 DUP1 REVERT JUMPDEST SWAP3 POP PUSH1 0x60 DUP7 ADD CALLDATALOAD PUSH1 0x1 PUSH1 0x1 PUSH1 0x40 SHL SUB DUP2 GT ISZERO PUSH2 0x1711 JUMPI PUSH1 0x0 DUP1 REVERT JUMPDEST PUSH2 0x171D DUP9 DUP3 DUP10 ADD PUSH2 0x1671 JUMP JUMPDEST SWAP7 SWAP10 SWAP6 SWAP9 POP SWAP4 SWAP7 POP SWAP3 SWAP5 SWAP4 SWAP3 POP POP POP JUMP JUMPDEST PUSH1 0x0 PUSH1 0x20 DUP3 DUP5 SUB SLT ISZERO PUSH2 0x1740 JUMPI PUSH1 0x0 DUP1 REVERT JUMPDEST POP CALLDATALOAD SWAP2 SWAP1 POP JUMP JUMPDEST PUSH1 0x20 DUP1 DUP3 MSTORE DUP3 MLOAD DUP3 DUP3 ADD DUP2 SWAP1 MSTORE PUSH1 0x0 SWAP2 SWAP1 DUP5 DUP3 ADD SWAP1 PUSH1 0x40 DUP6 ADD SWAP1 DUP5 JUMPDEST DUP2 DUP2 LT ISZERO PUSH2 0x177F JUMPI DUP4 MLOAD DUP4 MSTORE SWAP3 DUP5 ADD SWAP3 SWAP2 DUP5 ADD SWAP2 PUSH1 0x1 ADD PUSH2 0x1763 JUMP JUMPDEST POP SWAP1 SWAP7 SWAP6 POP POP POP POP POP POP JUMP JUMPDEST PUSH1 0x0 DUP1 PUSH1 0x0 PUSH1 0x60 DUP5 DUP7 SUB SLT ISZERO PUSH2 0x17A0 JUMPI PUSH1 0x0 DUP1 REVERT JUMPDEST DUP4 CALLDATALOAD SWAP3 POP PUSH1 0x20 DUP5 ADD CALLDATALOAD SWAP2 POP PUSH1 0x40 DUP5 ADD CALLDATALOAD PUSH2 0xFFFF DUP2 AND DUP2 EQ PUSH2 0x17C0 JUMPI PUSH1 0x0 DUP1 REVERT JUMPDEST DUP1 SWAP2 POP POP SWAP3 POP SWAP3 POP SWAP3 JUMP JUMPDEST PUSH1 0x0 DUP1 PUSH1 0x40 DUP4 DUP6 SUB SLT ISZERO PUSH2 0x17DE JUMPI PUSH1 0x0 DUP1 REVERT JUMPDEST DUP3 CALLDATALOAD SWAP2 POP PUSH2 0x17EE PUSH1 0x20 DUP5 ADD PUSH2 0x165A JUMP JUMPDEST SWAP1 POP SWAP3 POP SWAP3 SWAP1 POP JUMP JUMPDEST PUSH4 0x4E487B71 PUSH1 0xE0 SHL PUSH1 0x0 MSTORE PUSH1 0x41 PUSH1 0x4 MSTORE PUSH1 0x24 PUSH1 0x0 REVERT JUMPDEST PUSH1 0x0 DUP1 PUSH1 0x40 DUP4 DUP6 SUB SLT ISZERO PUSH2 0x1820 JUMPI PUSH1 0x0 DUP1 REVERT JUMPDEST PUSH2 0x1829 DUP4 PUSH2 0x165A JUMP JUMPDEST SWAP2 POP PUSH1 0x20 DUP4 ADD CALLDATALOAD PUSH1 0x1 PUSH1 0x1 PUSH1 0x40 SHL SUB DUP1 DUP3 GT ISZERO PUSH2 0x1845 JUMPI PUSH1 0x0 DUP1 REVERT JUMPDEST DUP2 DUP6 ADD SWAP2 POP DUP6 PUSH1 0x1F DUP4 ADD SLT PUSH2 0x1859 JUMPI PUSH1 0x0 DUP1 REVERT JUMPDEST DUP2 CALLDATALOAD DUP2 DUP2 GT ISZERO PUSH2 0x186B JUMPI PUSH2 0x186B PUSH2 0x17F7 JUMP JUMPDEST PUSH1 0x40 MLOAD PUSH1 0x1F DUP3 ADD PUSH1 0x1F NOT SWAP1 DUP2 AND PUSH1 0x3F ADD AND DUP2 ADD SWAP1 DUP4 DUP3 GT DUP2 DUP4 LT OR ISZERO PUSH2 0x1893 JUMPI PUSH2 0x1893 PUSH2 0x17F7 JUMP JUMPDEST DUP2 PUSH1 0x40 MSTORE DUP3 DUP2 MSTORE DUP9 PUSH1 0x20 DUP5 DUP8 ADD ADD GT ISZERO PUSH2 0x18AC JUMPI PUSH1 0x0 DUP1 REVERT JUMPDEST DUP3 PUSH1 0x20 DUP7 ADD PUSH1 0x20 DUP4 ADD CALLDATACOPY PUSH1 0x0 PUSH1 0x20 DUP5 DUP4 ADD ADD MSTORE DUP1 SWAP6 POP POP POP POP POP POP SWAP3 POP SWAP3 SWAP1 POP JUMP JUMPDEST PUSH4 0x4E487B71 PUSH1 0xE0 SHL PUSH1 0x0 MSTORE PUSH1 0x21 PUSH1 0x4 MSTORE PUSH1 0x24 PUSH1 0x0 REVERT JUMPDEST DUP2 MLOAD DUP2 MSTORE PUSH1 0x20 DUP3 ADD MLOAD PUSH1 0xC0 DUP3 ADD SWAP1 PUSH1 0x4 DUP2 LT PUSH2 0x1910 JUMPI PUSH4 0x4E487B71 PUSH1 0xE0 SHL PUSH1 0x0 MSTORE PUSH1 0x21 PUSH1 0x4 MSTORE PUSH1 0x24 PUSH1 0x0 REVERT JUMPDEST PUSH1 0x20 DUP4 ADD MSTORE PUSH1 0x40 DUP4 DUP2 ADD MLOAD PUSH1 0x1 PUSH1 0x1 PUSH1 0xA0 SHL SUB AND SWAP1 DUP4 ADD MSTORE PUSH1 0x60 DUP1 DUP5 ADD MLOAD SWAP1 DUP4 ADD MSTORE PUSH1 0x80 DUP1 DUP5 ADD MLOAD PUSH1 0x1 PUSH1 0x1 PUSH1 0x40 SHL SUB AND SWAP1 DUP4 ADD MSTORE PUSH1 0xA0 SWAP3 DUP4 ADD MLOAD ISZERO ISZERO SWAP3 SWAP1 SWAP2 ADD SWAP2 SWAP1 SWAP2 MSTORE SWAP1 JUMP JUMPDEST PUSH1 0x0 JUMPDEST DUP4 DUP2 LT ISZERO PUSH2 0x1973 JUMPI DUP2 DUP2 ADD MLOAD DUP4 DUP3 ADD MSTORE PUSH1 0x20 ADD PUSH2 0x195B JUMP JUMPDEST POP POP PUSH1 0x0 SWAP2 ADD MSTORE JUMP JUMPDEST PUSH1 0x0 DUP2 MLOAD DUP1 DUP5 MSTORE PUSH2 0x1994 DUP2 PUSH1 0x20 DUP7 ADD PUSH1 0x20 DUP7 ADD PUSH2 0x1958 JUMP JUMPDEST PUSH1 0x1F ADD PUSH1 0x1F NOT AND SWAP3 SWAP1 SWAP3 ADD PUSH1 0x20 ADD SWAP3 SWAP2 POP POP JUMP JUMPDEST PUSH1 0x20 DUP2 MSTORE PUSH1 0x0 PUSH2 0x761 PUSH1 0x20 DUP4 ADD DUP5 PUSH2 0x197C JUMP JUMPDEST PUSH1 0x0 PUSH1 0x20 DUP3 DUP5 SUB SLT ISZERO PUSH2 0x19CD JUMPI PUSH1 0x0 DUP1 REVERT JUMPDEST PUSH2 0x761 DUP3 PUSH2 0x165A JUMP JUMPDEST PUSH1 0x0 DUP1 PUSH1 0x0 DUP1 PUSH1 0x60 DUP6 DUP8 SUB SLT ISZERO PUSH2 0x19EC JUMPI PUSH1 0x0 DUP1 REVERT JUMPDEST PUSH2 0x19F5 DUP6 PUSH2 0x165A JUMP JUMPDEST SWAP4 POP PUSH1 0x20 DUP6 ADD CALLDATALOAD SWAP3 POP PUSH1 0x40 DUP6 ADD CALLDATALOAD PUSH1 0x1 PUSH1 0x1 PUSH1 0x40 SHL SUB DUP2 GT ISZERO PUSH2 0x1A17 JUMPI PUSH1 0x0 DUP1 REVERT JUMPDEST PUSH2 0x1A23 DUP8 DUP3 DUP9 ADD PUSH2 0x1671 JUMP JUMPDEST SWAP6 SWAP9 SWAP5 SWAP8 POP SWAP6 POP POP POP POP JUMP JUMPDEST DUP6 DUP2 MSTORE PUSH1 0x1 PUSH1 0x1 PUSH1 0x40 SHL SUB DUP6 AND PUSH1 0x20 DUP3 ADD MSTORE DUP4 ISZERO ISZERO PUSH1 0x40 DUP3 ADD MSTORE PUSH1 0x80 PUSH1 0x60 DUP3 ADD MSTORE DUP2 PUSH1 0x80 DUP3 ADD MSTORE DUP2 DUP4 PUSH1 0xA0 DUP4 ADD CALLDATACOPY PUSH1 0x0 DUP2 DUP4 ADD PUSH1 0xA0 SWAP1 DUP2 ADD SWAP2 SWAP1 SWAP2 MSTORE PUSH1 0x1F SWAP1 SWAP3 ADD PUSH1 0x1F NOT AND ADD ADD SWAP5 SWAP4 POP POP POP POP JUMP JUMPDEST PUSH7 0x26B7B232B61D1 PUSH1 0xCD SHL DUP2 MSTORE PUSH1 0x0 DUP4 MLOAD PUSH2 0x1AA0 DUP2 PUSH1 0x7 DUP6 ADD PUSH1 0x20 DUP9 ADD PUSH2 0x1958 JUMP JUMPDEST PUSH13 0x1021B7B73334B232B731B29D1 PUSH1 0x9D SHL PUSH1 0x7 SWAP2 DUP5 ADD SWAP2 DUP3 ADD MSTORE DUP4 MLOAD PUSH2 0x1ACD DUP2 PUSH1 0x14 DUP5 ADD PUSH1 0x20 DUP9 ADD PUSH2 0x1958 JUMP JUMPDEST ADD PUSH1 0x14 ADD SWAP5 SWAP4 POP POP POP POP JUMP JUMPDEST DUP5 DUP2 MSTORE PUSH1 0x1 PUSH1 0x1 PUSH1 0x40 SHL SUB DUP5 AND PUSH1 0x20 DUP3 ADD MSTORE DUP3 ISZERO ISZERO PUSH1 0x40 DUP3 ADD MSTORE PUSH1 0x80 PUSH1 0x60 DUP3 ADD MSTORE PUSH1 0x0 PUSH2 0x1B09 PUSH1 0x80 DUP4 ADD DUP5 PUSH2 0x197C JUMP JUMPDEST SWAP7 SWAP6 POP POP POP POP POP POP JUMP JUMPDEST PUSH4 0x4E487B71 PUSH1 0xE0 SHL PUSH1 0x0 MSTORE PUSH1 0x32 PUSH1 0x4 MSTORE PUSH1 0x24 PUSH1 0x0 REVERT JUMPDEST PUSH4 0x4E487B71 PUSH1 0xE0 SHL PUSH1 0x0 MSTORE PUSH1 0x11 PUSH1 0x4 MSTORE PUSH1 0x24 PUSH1 0x0 REVERT JUMPDEST PUSH1 0x0 PUSH1 0xFF DUP3 AND PUSH1 0xFF DUP2 SUB PUSH2 0x1B55 JUMPI PUSH2 0x1B55 PUSH2 0x1B29 JUMP JUMPDEST PUSH1 0x1 ADD SWAP3 SWAP2 POP POP JUMP JUMPDEST PUSH1 0x0 PUSH2 0xFFFF DUP1 DUP4 AND DUP2 DUP2 SUB PUSH2 0x1B75 JUMPI PUSH2 0x1B75 PUSH2 0x1B29 JUMP JUMPDEST PUSH1 0x1 ADD SWAP4 SWAP3 POP POP POP JUMP JUMPDEST PUSH1 0x0 PUSH2 0xFFFF DUP1 DUP5 AND DUP1 PUSH2 0x1BA2 JUMPI PUSH4 0x4E487B71 PUSH1 0xE0 SHL PUSH1 0x0 MSTORE PUSH1 0x12 PUSH1 0x4 MSTORE PUSH1 0x24 PUSH1 0x0 REVERT JUMPDEST SWAP3 AND SWAP2 SWAP1 SWAP2 DIV SWAP3 SWAP2 POP POP JUMP JUMPDEST PUSH2 0xFFFF DUP3 DUP2 AND DUP3 DUP3 AND SUB SWAP1 DUP1 DUP3 GT ISZERO PUSH2 0x114A JUMPI PUSH2 0x114A PUSH2 0x1B29 JUMP JUMPDEST PUSH2 0xFFFF DUP2 DUP2 AND DUP4 DUP3 AND MUL DUP1 DUP3 AND SWAP2 SWAP1 DUP3 DUP2 EQ PUSH2 0x1BE7 JUMPI PUSH2 0x1BE7 PUSH2 0x1B29 JUMP JUMPDEST POP POP SWAP3 SWAP2 POP POP JUMP JUMPDEST PUSH1 0xFF DUP2 DUP2 AND DUP4 DUP3 AND ADD SWAP1 DUP2 GT ISZERO PUSH2 0x441 JUMPI PUSH2 0x441 PUSH2 0x1B29 JUMP JUMPDEST PUSH1 0x0 PUSH1 0x20 DUP3 DUP5 SUB SLT ISZERO PUSH2 0x1C1A JUMPI PUSH1 0x0 DUP1 REVERT JUMPDEST POP MLOAD SWAP2 SWAP1 POP JUMP JUMPDEST PUSH1 0x0 DUP3 MLOAD PUSH2 0x1C33 DUP2 DUP5 PUSH1 0x20 DUP8 ADD PUSH2 0x1958 JUMP JUMPDEST SWAP2 SWAP1 SWAP2 ADD SWAP3 SWAP2 POP POP JUMP INVALID CALLDATASIZE ADDMOD SWAP5 LOG1 EXTCODESIZE LOG1 LOG3 0x21 MOD PUSH8 0xC828492DB98DCA3E KECCAK256 PUSH23 0xCC3735A920A3CA505D382BBC02DD7BC7DEC4DCEEDDA775 0xE5 DUP14 0xD5 COINBASE 0xE0 DUP11 GT PUSH13 0x6C53815C0BD028192F7B626800 SWAP12 PUSH24 0x9B17422D0DF92223018B32B4D1FA46E071723D6817E2486D STOP EXTCODESIZE 0xEC 0xC5 PUSH0 STOP LOG2 PUSH5 0x6970667358 0x22 SLT KECCAK256 DUP1 0xD PUSH19 0x12A52E4FEFEDB8EAB6155B0232F1F879F99CA4 PC 0xBD PUSH3 0xFB1EBA 0x2B 0xAF MSTORE SGT PUSH5 0x736F6C6343 STOP ADDMOD AND STOP CALLER "},"methodIdentifiers":{"ADMIN_ROLE()":"75b238fc","AUDITOR_ROLE()":"6e1d616e","DEFAULT_ADMIN_ROLE()":"a217fddf","UPGRADE_INTERFACE_VERSION()":"ad3cb1cc","getActorAuditTrail(address)":"726b7251","getAuditEntry(bytes32)":"4fe3b8b1","getResourceAuditTrail(bytes32)":"200140f0","getRoleAdmin(bytes32)":"248a9ca3","grantRole(bytes32,address)":"2f2ff15d","hasRole(bytes32,address)":"91d14854","initialize(address)":"c4d66de8","logAIDiagnostic(bytes32,bytes32,uint16)":"2b1f1f84","logConsentChange(address,bytes32,string)":"7a02fc7c","logDataAccess(address,bytes32,bool,string)":"04b31f66","proxiableUUID()":"52d1902d","renounceRole(bytes32,address)":"36568abe","revokeRole(bytes32,address)":"d547741f","supportsInterface(bytes4)":"01ffc9a7","upgradeToAndCall(address,bytes)":"4f1ef286","version()":"54fd4d50"}},"storageLayout":{"storage":[{"astId":1911,"contract":"contracts/AuditTrail.sol:AuditTrail","label":"_auditEntries","offset":0,"slot":"0","type":"t_mapping(t_bytes32,t_struct(AuditEntry)1906_storage)"},{"astId":1916,"contract":"contracts/AuditTrail.sol:AuditTrail","label":"_resourceAuditTrails","offset":0,"slot":"1","type":"t_mapping(t_bytes32,t_array(t_bytes32)dyn_storage)"},{"astId":1921,"contract":"contracts/AuditTrail.sol:AuditTrail","label":"_actorAuditTrails","offset":0,"slot":"2","type":"t_mapping(t_address,t_array(t_bytes32)dyn_storage)"}],"types":{"t_address":{"encoding":"inplace","label":"address","numberOfBytes":"20"},"t_array(t_bytes32)dyn_storage":{"base":"t_bytes32","encoding":"dynamic_array","label":"bytes32[]","numberOfBytes":"32"},"t_bool":{"encoding":"inplace","label":"bool","numberOfBytes":"1"},"t_bytes32":{"encoding":"inplace","label":"bytes32","numberOfBytes":"32"},"t_enum(AuditType)1892":{"encoding":"inplace","label":"enum AuditTrail.AuditType","numberOfBytes":"1"},"t_mapping(t_address,t_array(t_bytes32)dyn_storage)":{"encoding":"mapping","key":"t_address","label":"mapping(address => bytes32[])","numberOfBytes":"32","value":"t_array(t_bytes32)dyn_storage"},"t_mapping(t_bytes32,t_array(t_bytes32)dyn_storage)":{"encoding":"mapping","key":"t_bytes32","label":"mapping(bytes32 => bytes32[])","numberOfBytes":"32","value":"t_array(t_bytes32)dyn_storage"},"t_mapping(t_bytes32,t_struct(AuditEntry)1906_storage)":{"encoding":"mapping","key":"t_bytes32","label":"mapping(bytes32 => struct AuditTrail.AuditEntry)","numberOfBytes":"32","value":"t_struct(AuditEntry)1906_storage"},"t_struct(AuditEntry)1906_storage":{"encoding":"inplace","label":"struct AuditTrail.AuditEntry","members":[{"astId":1894,"contract":"contracts/AuditTrail.sol:AuditTrail","label":"entryId","offset":0,"slot":"0","type":"t_bytes32"},{"astId":1897,"contract":"contracts/AuditTrail.sol:AuditTrail","label":"auditType","offset":0,"slot":"1","type":"t_enum(AuditType)1892"},{"astId":1899,"contract":"contracts/AuditTrail.sol:AuditTrail","label":"actorId","offset":1,"slot":"1","type":"t_address"},{"astId":1901,"contract":"contracts/AuditTrail.sol:AuditTrail","label":"resourceId","offset":0,"slot":"2","type":"t_bytes32"},{"astId":1903,"contract":"contracts/AuditTrail.sol:AuditTrail","label":"timestamp","offset":0,"slot":"3","type":"t_uint64"},{"astId":1905,"contract":"contracts/AuditTrail.sol:AuditTrail","label":"granted","offset":8,"slot":"3","type":"t_bool"}],"numberOfBytes":"128"},"t_uint64":{"encoding":"inplace","label":"uint64","numberOfBytes":"8"}}}}}}