{
  "_format": "hh-sol-artifact-1",
  "contractName": "AuditTrail",
  "sourceName": "contracts/AuditTrail.sol",
  "abi": [
    {
      "inputs": [],
      "stateMutability": "nonpayable",
      "type": "constructor"
    },
    {
      "inputs": [],
      "name": "AccessControlBadConfirmation",
      "type": "error"
    },
    {
      "inputs": [
        {
          "internalType": "address",
          "name": "account",
          "type": "address"
        },
        {
          "internalType": "bytes32",
          "name": "neededRole",
          "type": "bytes32"
        }
      ],
      "name": "AccessControlUnauthorizedAccount",
      "type": "error"
    },
    {
      "inputs": [
        {
          "internalType": "address",
          "name": "target",
          "type": "address"
        }
      ],
      "name": "AddressEmptyCode",
      "type": "error"
    },
    {
      "inputs": [
        {
          "internalType": "address",
          "name": "implementation",
          "type": "address"
        }
      ],
      "name": "ERC1967InvalidImplementation",
      "type": "error"
    },
    {
      "inputs": [],
      "name": "ERC1967NonPayable",
      "type": "error"
    },
    {
      "inputs": [],
      "name": "FailedCall",
      "type": "error"
    },
    {
      "inputs": [],
      "name": "InvalidInitialization",
      "type": "error"
    },
    {
      "inputs": [],
      "name": "NotInitializing",
      "type": "error"
    },
    {
      "inputs": [],
      "name": "ReentrancyGuardReentrantCall",
      "type": "error"
    },
    {
      "inputs": [],
      "name": "UUPSUnauthorizedCallContext",
      "type": "error"
    },
    {
      "inputs": [
        {
          "internalType": "bytes32",
          "name": "slot",
          "type": "bytes32"
        }
      ],
      "name": "UUPSUnsupportedProxiableUUID",
      "type": "error"
    },
    {
      "anonymous": false,
      "inputs": [
        {
          "indexed": true,
          "internalType": "bytes32",
          "name": "entryId",
          "type": "bytes32"
        },
        {
          "indexed": true,
          "internalType": "enum AuditTrail.AuditType",
          "name": "auditType",
          "type": "uint8"
        },
        {
          "indexed": true,
          "internalType": "address",
          "name": "actorId",
          "type": "address"
        },
        {
          "indexed": false,
          "internalType": "bytes32",
          "name": "resourceId",
          "type": "bytes32"
        },
        {
          "indexed": false,
          "internalType": "uint64",
          "name": "timestamp",
          "type": "uint64"
        },
        {
          "indexed": false,
          "internalType": "bool",
          "name": "granted",
          "type": "bool"
        },
        {
          "indexed": false,
          "internalType": "string",
          "name": "reason",
          "type": "string"
        }
      ],
      "name": "AuditLogged",
      "type": "event"
    },
    {
      "anonymous": false,
      "inputs": [
        {
          "indexed": false,
          "internalType": "bytes32[]",
          "name": "entryIds",
          "type": "bytes32[]"
        },
        {
          "indexed": false,
          "internalType": "enum AuditTrail.AuditType",
          "name": "auditType",
          "type": "uint8"
        },
        {
          "indexed": false,
          "internalType": "uint64",
          "name": "timestamp",
          "type": "uint64"
        }
      ],
      "name": "BatchAuditLogged",
      "type": "event"
    },
    {
      "anonymous": false,
      "inputs": [
        {
          "indexed": false,
          "internalType": "uint64",
          "name": "version",
          "type": "uint64"
        }
      ],
      "name": "Initialized",
      "type": "event"
    },
    {
      "anonymous": false,
      "inputs": [
        {
          "indexed": true,
          "internalType": "bytes32",
          "name": "role",
          "type": "bytes32"
        },
        {
          "indexed": true,
          "internalType": "bytes32",
          "name": "previousAdminRole",
          "type": "bytes32"
        },
        {
          "indexed": true,
          "internalType": "bytes32",
          "name": "newAdminRole",
          "type": "bytes32"
        }
      ],
      "name": "RoleAdminChanged",
      "type": "event"
    },
    {
      "anonymous": false,
      "inputs": [
        {
          "indexed": true,
          "internalType": "bytes32",
          "name": "role",
          "type": "bytes32"
        },
        {
          "indexed": true,
          "internalType": "address",
          "name": "account",
          "type": "address"
        },
        {
          "indexed": true,
          "internalType": "address",
          "name": "sender",
          "type": "address"
        }
      ],
      "name": "RoleGranted",
      "type": "event"
    },
    {
      "anonymous": false,
      "inputs": [
        {
          "indexed": true,
          "internalType": "bytes32",
          "name": "role",
          "type": "bytes32"
        },
        {
          "indexed": true,
          "internalType": "address",
          "name": "account",
          "type": "address"
        },
        {
          "indexed": true,
          "internalType": "address",
          "name": "sender",
          "type": "address"
        }
      ],
      "name": "RoleRevoked",
      "type": "event"
    },
    {
      "anonymous": false,
      "inputs": [
        {
          "indexed": true,
          "internalType": "address",
          "name": "implementation",
          "type": "address"
        }
      ],
      "name": "Upgraded",
      "type": "event"
    },
    {
      "inputs": [],
      "name": "ADMIN_ROLE",
      "outputs": [
        {
          "internalType": "bytes32",
          "name": "",
          "type": "bytes32"
        }
      ],
      "stateMutability": "view",
      "type": "function"
    },
    {
      "inputs": [],
      "name": "AUDITOR_ROLE",
      "outputs": [
        {
          "internalType": "bytes32",
          "name": "",
          "type": "bytes32"
        }
      ],
      "stateMutability": "view",
      "type": "function"
    },
    {
      "inputs": [],
      "name": "DEFAULT_ADMIN_ROLE",
      "outputs": [
        {
          "internalType": "bytes32",
          "name": "",
          "type": "bytes32"
        }
      ],
      "stateMutability": "view",
      "type": "function"
    },
    {
      "inputs": [],
      "name": "UPGRADE_INTERFACE_VERSION",
      "outputs": [
        {
          "internalType": "string",
          "name": "",
          "type": "string"
        }
      ],
      "stateMutability": "view",
      "type": "function"
    },
    {
      "inputs": [
        {
          "internalType": "address",
          "name": "actorId",
          "type": "address"
        }
      ],
      "name": "getActorAuditTrail",
      "outputs": [
        {
          "internalType": "bytes32[]",
          "name": "entryIds",
          "type": "bytes32[]"
        }
      ],
      "stateMutability": "view",
      "type": "function"
    },
    {
      "inputs": [
        {
          "internalType": "bytes32",
          "name": "entryId",
          "type": "bytes32"
        }
      ],
      "name": "getAuditEntry",
      "outputs": [
        {
          "components": [
            {
              "internalType": "bytes32",
              "name": "entryId",
              "type": "bytes32"
            },
            {
              "internalType": "enum AuditTrail.AuditType",
              "name": "auditType",
              "type": "uint8"
            },
            {
              "internalType": "address",
              "name": "actorId",
              "type": "address"
            },
            {
              "internalType": "bytes32",
              "name": "resourceId",
              "type": "bytes32"
            },
            {
              "internalType": "uint64",
              "name": "timestamp",
              "type": "uint64"
            },
            {
              "internalType": "bool",
              "name": "granted",
              "type": "bool"
            }
          ],
          "internalType": "struct AuditTrail.AuditEntry",
          "name": "entry",
          "type": "tuple"
        }
      ],
      "stateMutability": "view",
      "type": "function"
    },
    {
      "inputs": [
        {
          "internalType": "bytes32",
          "name": "resourceId",
          "type": "bytes32"
        }
      ],
      "name": "getResourceAuditTrail",
      "outputs": [
        {
          "internalType": "bytes32[]",
          "name": "entryIds",
          "type": "bytes32[]"
        }
      ],
      "stateMutability": "view",
      "type": "function"
    },
    {
      "inputs": [
        {
          "internalType": "bytes32",
          "name": "role",
          "type": "bytes32"
        }
      ],
      "name": "getRoleAdmin",
      "outputs": [
        {
          "internalType": "bytes32",
          "name": "",
          "type": "bytes32"
        }
      ],
      "stateMutability": "view",
      "type": "function"
    },
    {
      "inputs": [
        {
          "internalType": "bytes32",
          "name": "role",
          "type": "bytes32"
        },
        {
          "internalType": "address",
          "name": "account",
          "type": "address"
        }
      ],
      "name": "grantRole",
      "outputs": [],
      "stateMutability": "nonpayable",
      "type": "function"
    },
    {
      "inputs": [
        {
          "internalType": "bytes32",
          "name": "role",
          "type": "bytes32"
        },
        {
          "internalType": "address",
          "name": "account",
          "type": "address"
        }
      ],
      "name": "hasRole",
      "outputs": [
        {
          "internalType": "bool",
          "name": "",
          "type": "bool"
        }
      ],
      "stateMutability": "view",
      "type": "function"
    },
    {
      "inputs": [
        {
          "internalType": "address",
          "name": "admin",
          "type": "address"
        }
      ],
      "name": "initialize",
      "outputs": [],
      "stateMutability": "nonpayable",
      "type": "function"
    },
    {
      "inputs": [
        {
          "internalType": "bytes32",
          "name": "modelId",
          "type": "bytes32"
        },
        {
          "internalType": "bytes32",
          "name": "recordId",
          "type": "bytes32"
        },
        {
          "internalType": "uint16",
          "name": "confidence",
          "type": "uint16"
        }
      ],
      "name": "logAIDiagnostic",
      "outputs": [
        {
          "internalType": "bytes32",
          "name": "entryId",
          "type": "bytes32"
        }
      ],
      "stateMutability": "nonpayable",
      "type": "function"
    },
    {
      "inputs": [
        {
          "internalType": "address",
          "name": "actorId",
          "type": "address"
        },
        {
          "internalType": "bytes32",
          "name": "consentId",
          "type": "bytes32"
        },
        {
          "internalType": "string",
          "name": "action",
          "type": "string"
        }
      ],
      "name": "logConsentChange",
      "outputs": [
        {
          "internalType": "bytes32",
          "name": "entryId",
          "type": "bytes32"
        }
      ],
      "stateMutability": "nonpayable",
      "type": "function"
    },
    {
      "inputs": [
        {
          "internalType": "address",
          "name": "actorId",
          "type": "address"
        },
        {
          "internalType": "bytes32",
          "name": "resourceId",
          "type": "bytes32"
        },
        {
          "internalType": "bool",
          "name": "granted",
          "type": "bool"
        },
        {
          "internalType": "string",
          "name": "reason",
          "type": "string"
        }
      ],
      "name": "logDataAccess",
      "outputs": [
        {
          "internalType": "bytes32",
          "name": "entryId",
          "type": "bytes32"
        }
      ],
      "stateMutability": "nonpayable",
      "type": "function"
    },
    {
      "inputs": [],
      "name": "proxiableUUID",
      "outputs": [
        {
          "internalType": "bytes32",
          "name": "",
          "type": "bytes32"
        }
      ],
      "stateMutability": "view",
      "type": "function"
    },
    {
      "inputs": [
        {
          "internalType": "bytes32",
          "name": "role",
          "type": "bytes32"
        },
        {
          "internalType": "address",
          "name": "callerConfirmation",
          "type": "address"
        }
      ],
      "name": "renounceRole",
      "outputs": [],
      "stateMutability": "nonpayable",
      "type": "function"
    },
    {
      "inputs": [
        {
          "internalType": "bytes32",
          "name": "role",
          "type": "bytes32"
        },
        {
          "internalType": "address",
          "name": "account",
          "type": "address"
        }
      ],
      "name": "revokeRole",
      "outputs": [],
      "stateMutability": "nonpayable",
      "type": "function"
    },
    {
      "inputs": [
        {
          "internalType": "bytes4",
          "name": "interfaceId",
          "type": "bytes4"
        }
      ],
      "name": "supportsInterface",
      "outputs": [
        {
          "internalType": "bool",
          "name": "",
          "type": "bool"
        }
      ],
      "stateMutability": "view",
      "type": "function"
    },
    {
      "inputs": [
        {
          "internalType": "address",
          "name": "newImplementation",
          "type": "address"
        },
        {
          "internalType": "bytes",
          "name": "data",
          "type": "bytes"
        }
      ],
      "name": "upgradeToAndCall",
      "outputs": [],
      "stateMutability": "payable",
      "type": "function"
    },
    {
      "inputs": [],
      "name": "version",
      "outputs": [
        {
          "internalType": "string",
          "name": "",
          "type": "string"
        }
      ],
      "stateMutability": "pure",
      "type": "function"
    }
  ],
  "bytecode": "0x60a06040523060805234801561001457600080fd5b5061001d610022565b6100d4565b7ff0c57e16840df040f15088dc2f81fe391c3923bec73e23a9662efc9c229c6a00805468010000000000000000900460ff16156100725760405163f92ee8a960e01b815260040160405180910390fd5b80546001600160401b03908116146100d15780546001600160401b0319166001600160401b0390811782556040519081527fc7f505b2f371ae2175ee4913f4499e1f2633a7b5936321eed1cdaeb6115181d29060200160405180910390a15b50565b608051611cd36100fd600039600081816111d80152818161120101526113660152611cd36000f3fe60806040526004361061011f5760003560e01c806354fd4d50116100a057806391d148541161006457806391d148541461036a578063a217fddf1461038a578063ad3cb1cc1461039f578063c4d66de8146103d0578063d547741f146103f057600080fd5b806354fd4d501461028b5780636e1d616e146102c2578063726b7251146102f657806375b238fc146103165780637a02fc7c1461034a57600080fd5b80632f2ff15d116100e75780632f2ff15d146101f457806336568abe146102165780634f1ef286146102365780634fe3b8b11461024957806352d1902d1461027657600080fd5b806301ffc9a71461012457806304b31f6614610159578063200140f014610187578063248a9ca3146101b45780632b1f1f84146101d4575b600080fd5b34801561013057600080fd5b5061014461013f366004611630565b610410565b60405190151581526020015b60405180910390f35b34801561016557600080fd5b506101796101743660046116b9565b610447565b604051908152602001610150565b34801561019357600080fd5b506101a76101a236600461172e565b610562565b6040516101509190611747565b3480156101c057600080fd5b506101796101cf36600461172e565b6105c4565b3480156101e057600080fd5b506101796101ef36600461178b565b6105e6565b34801561020057600080fd5b5061021461020f3660046117cb565b610768565b005b34801561022257600080fd5b506102146102313660046117cb565b61078a565b61021461024436600461180d565b6107c2565b34801561025557600080fd5b5061026961026436600461172e565b6107e1565b60405161015091906118e4565b34801561028257600080fd5b506101796108f8565b34801561029757600080fd5b506040805180820190915260058152640312e302e360dc1b60208201525b60405161015091906119a8565b3480156102ce57600080fd5b506101797f59a1c48e5837ad7a7f3dcedcbe129bf3249ec4fbf651fd4f5e2600ead39fe2f581565b34801561030257600080fd5b506101a76103113660046119bb565b610915565b34801561032257600080fd5b506101797fa49807205ce4d355092ef5a8a18f56e8913cf4a201fbe287825b095693c2177581565b34801561035657600080fd5b506101796103653660046119d6565b61097f565b34801561037657600080fd5b506101446103853660046117cb565b610a95565b34801561039657600080fd5b50610179600081565b3480156103ab57600080fd5b506102b5604051806040016040528060058152602001640352e302e360dc1b81525081565b3480156103dc57600080fd5b506102146103eb3660046119bb565b610acd565b3480156103fc57600080fd5b5061021461040b3660046117cb565b610c0d565b60006001600160e01b03198216637965db0b60e01b148061044157506301ffc9a760e01b6001600160e01b03198316145b92915050565b6000610451610c29565b6001600160a01b0386166104a45760405162461bcd60e51b8152602060048201526015602482015274496e76616c6964206163746f72206164647265737360581b60448201526064015b60405180910390fd5b846104e75760405162461bcd60e51b8152602060048201526013602482015272125b9d985b1a59081c995cdbdd5c98d9481251606a1b604482015260640161049b565b6104f46000878787610c61565b90506001600160a01b0386166000827ff0dea17f9b46824dd1389dae394fb01b4a036ebd544ade9dc4d7490b552038ae884289898960405161053a959493929190611a2f565b60405180910390a46105596001600080516020611c7e83398151915255565b95945050505050565b6000818152600160209081526040918290208054835181840281018401909452808452606093928301828280156105b857602002820191906000526020600020905b8154815260200190600101908083116105a4575b50505050509050919050565b6000908152600080516020611c5e833981519152602052604090206001015490565b60006105f0610c29565b836106305760405162461bcd60e51b815260206004820152601060248201526f125b9d985b1a59081b5bd9195b08125160821b604482015260640161049b565b826106715760405162461bcd60e51b8152602060048201526011602482015270125b9d985b1a59081c9958dbdc99081251607a1b604482015260640161049b565b6127108261ffff1611156106c75760405162461bcd60e51b815260206004820152601860248201527f496e76616c696420636f6e666964656e63652073636f72650000000000000000604482015260640161049b565b6106d660026000856001610c61565b905060006002827ff0dea17f9b46824dd1389dae394fb01b4a036ebd544ade9dc4d7490b552038ae8642600161070b8b610e2a565b6107148a610f59565b604051602001610725929190611a7e565b60408051601f198184030181529082905261074294939291611ad9565b60405180910390a46107616001600080516020611c7e83398151915255565b9392505050565b610771826105c4565b61077a81611098565b61078483836110a5565b50505050565b6001600160a01b03811633146107b35760405163334bd91960e11b815260040160405180910390fd5b6107bd8282611151565b505050565b6107ca6111cd565b6107d382611274565b6107dd828261129e565b5050565b6040805160c081018252600080825260208201819052918101829052606081018290526080810182905260a081019190915260008281526020818152604091829020825160c08101909352805483526001810154909183019060ff16600381111561084e5761084e6118ce565b600381111561085f5761085f6118ce565b8152600182015461010090046001600160a01b03166020820152600282015460408201526003909101546001600160401b0381166060830152600160401b900460ff16151560809091015280519091506108f35760405162461bcd60e51b8152602060048201526015602482015274105d591a5d08195b9d1c9e481b9bdd08199bdd5b99605a1b604482015260640161049b565b919050565b600061090261135b565b50600080516020611c3e83398151915290565b6001600160a01b0381166000908152600260209081526040918290208054835181840281018401909452808452606093928301828280156105b857602002820191906000526020600020908154815260200190600101908083116105a45750505050509050919050565b6000610989610c29565b6001600160a01b0385166109d75760405162461bcd60e51b8152602060048201526015602482015274496e76616c6964206163746f72206164647265737360581b604482015260640161049b565b83610a195760405162461bcd60e51b8152602060048201526012602482015271125b9d985b1a590818dbdb9cd95b9d08125160721b604482015260640161049b565b610a27600186866001610c61565b90506001600160a01b0385166001827ff0dea17f9b46824dd1389dae394fb01b4a036ebd544ade9dc4d7490b552038ae874260018989604051610a6e959493929190611a2f565b60405180910390a4610a8d6001600080516020611c7e83398151915255565b949350505050565b6000918252600080516020611c5e833981519152602090815260408084206001600160a01b0393909316845291905290205460ff1690565b6000610ad76113a4565b805490915060ff600160401b82041615906001600160401b0316600081158015610afe5750825b90506000826001600160401b03166001148015610b1a5750303b155b905081158015610b28575080155b15610b465760405163f92ee8a960e01b815260040160405180910390fd5b845467ffffffffffffffff191660011785558315610b7057845460ff60401b1916600160401b1785555b610b786113cd565b610b806113cd565b610b886113d5565b610b936000876110a5565b50610bbe7fa49807205ce4d355092ef5a8a18f56e8913cf4a201fbe287825b095693c21775876110a5565b508315610c0557845460ff60401b19168555604051600181527fc7f505b2f371ae2175ee4913f4499e1f2633a7b5936321eed1cdaeb6115181d29060200160405180910390a15b505050505050565b610c16826105c4565b610c1f81611098565b6107848383611151565b600080516020611c7e833981519152805460011901610c5b57604051633ee5aeb560e01b815260040160405180910390fd5b60029055565b6000838342435a60405160609590951b6bffffffffffffffffffffffff19166020860152603485019390935260548401919091526074830152609482015260b40160405160208183030381529060405280519060200120905060006040518060c00160405280838152602001876003811115610cdf57610cdf6118ce565b8152602001866001600160a01b03168152602001858152602001426001600160401b031681526020018415158152509050806000808481526020019081526020016000206000820151816000015560208201518160010160006101000a81548160ff02191690836003811115610d5757610d576118ce565b0217905550604082810151600180840180546001600160a01b0393841661010002610100600160a81b0319909116179055606085015160028086019190915560808601516003909501805460a0909701511515600160401b0268ffffffffffffffffff199097166001600160401b039096169590951795909517909355600088815260208481528382208054808701825590835281832001889055918a1681529381529083208054928301815583529091200182905550949350505050565b6001600080516020611c7e83398151915255565b606060005b60208160ff16108015610e635750828160ff1660208110610e5257610e52611b13565b1a60f81b6001600160f81b03191615155b15610e7a5780610e7281611b3f565b915050610e2f565b60008160ff166001600160401b03811115610e9757610e976117f7565b6040519080825280601f01601f191660200182016040528015610ec1576020820181803683370190505b509050600091505b60208260ff16108015610efd5750838260ff1660208110610eec57610eec611b13565b1a60f81b6001600160f81b03191615155b1561076157838260ff1660208110610f1757610f17611b13565b1a60f81b818360ff1681518110610f3057610f30611b13565b60200101906001600160f81b031916908160001a90535081610f5181611b3f565b925050610ec9565b60608161ffff16600003610f845750506040805180820190915260018152600360fc1b602082015290565b8160005b61ffff821615610fb25780610f9c81611b5e565b9150610fab9050600a83611b7f565b9150610f88565b60008161ffff166001600160401b03811115610fd057610fd06117f7565b6040519080825280601f01601f191660200182016040528015610ffa576020820181803683370190505b509050815b61ffff86161561108f57611014600182611bae565b90506000611023600a88611b7f565b61102e90600a611bc9565b6110389088611bae565b611043906030611bef565b905060008160f81b905080848461ffff168151811061106457611064611b13565b60200101906001600160f81b031916908160001a905350611086600a89611b7f565b97505050610fff565b50949350505050565b6110a281336113e5565b50565b6000600080516020611c5e8339815191526110c08484610a95565b611140576000848152602082815260408083206001600160a01b03871684529091529020805460ff191660011790556110f63390565b6001600160a01b0316836001600160a01b0316857f2f8788117e7eff1d82e926ec794901d17c78024a50270940304540a733656f0d60405160405180910390a46001915050610441565b6000915050610441565b5092915050565b6000600080516020611c5e83398151915261116c8484610a95565b15611140576000848152602082815260408083206001600160a01b0387168085529252808320805460ff1916905551339287917ff6391f5c32d9c69d2a47ea670b442974b53935d1edc7fd64eb21e047a839171b9190a46001915050610441565b306001600160a01b037f000000000000000000000000000000000000000000000000000000000000000016148061125457507f00000000000000000000000000000000000000000000000000000000000000006001600160a01b0316611248600080516020611c3e833981519152546001600160a01b031690565b6001600160a01b031614155b156112725760405163703e46dd60e11b815260040160405180910390fd5b565b7fa49807205ce4d355092ef5a8a18f56e8913cf4a201fbe287825b095693c217756107dd81611098565b816001600160a01b03166352d1902d6040518163ffffffff1660e01b8152600401602060405180830381865afa9250505080156112f8575060408051601f3d908101601f191682019092526112f591810190611c08565b60015b61132057604051634c9c8ce360e01b81526001600160a01b038316600482015260240161049b565b600080516020611c3e833981519152811461135157604051632a87526960e21b81526004810182905260240161049b565b6107bd838361141e565b306001600160a01b037f000000000000000000000000000000000000000000000000000000000000000016146112725760405163703e46dd60e11b815260040160405180910390fd5b6000807ff0c57e16840df040f15088dc2f81fe391c3923bec73e23a9662efc9c229c6a00610441565b611272611474565b6113dd611474565b611272611499565b6113ef8282610a95565b6107dd5760405163e2517d3f60e01b81526001600160a01b03821660048201526024810183905260440161049b565b611427826114a1565b6040516001600160a01b038316907fbc7cd75a20ee27fd9adebab32041f755214dbc6bffa90cc0225b39da2e5c2d3b90600090a280511561146c576107bd8282611506565b6107dd611573565b61147c611592565b61127257604051631afcd79f60e31b815260040160405180910390fd5b610e16611474565b806001600160a01b03163b6000036114d757604051634c9c8ce360e01b81526001600160a01b038216600482015260240161049b565b600080516020611c3e83398151915280546001600160a01b0319166001600160a01b0392909216919091179055565b6060600080846001600160a01b0316846040516115239190611c21565b600060405180830381855af49150503d806000811461155e576040519150601f19603f3d011682016040523d82523d6000602084013e611563565b606091505b50915091506105598583836115ac565b34156112725760405163b398979f60e01b815260040160405180910390fd5b600061159c6113a4565b54600160401b900460ff16919050565b6060826115c1576115bc82611608565b610761565b81511580156115d857506001600160a01b0384163b155b1561160157604051639996b31560e01b81526001600160a01b038516600482015260240161049b565b5080610761565b80511561161757805160208201fd5b60405163d6bda27560e01b815260040160405180910390fd5b60006020828403121561164257600080fd5b81356001600160e01b03198116811461076157600080fd5b80356001600160a01b03811681146108f357600080fd5b60008083601f84011261168357600080fd5b5081356001600160401b0381111561169a57600080fd5b6020830191508360208285010111156116b257600080fd5b9250929050565b6000806000806000608086880312156116d157600080fd5b6116da8661165a565b945060208601359350604086013580151581146116f657600080fd5b925060608601356001600160401b0381111561171157600080fd5b61171d88828901611671565b969995985093965092949392505050565b60006020828403121561174057600080fd5b5035919050565b6020808252825182820181905260009190848201906040850190845b8181101561177f57835183529284019291840191600101611763565b50909695505050505050565b6000806000606084860312156117a057600080fd5b8335925060208401359150604084013561ffff811681146117c057600080fd5b809150509250925092565b600080604083850312156117de57600080fd5b823591506117ee6020840161165a565b90509250929050565b634e487b7160e01b600052604160045260246000fd5b6000806040838503121561182057600080fd5b6118298361165a565b915060208301356001600160401b038082111561184557600080fd5b818501915085601f83011261185957600080fd5b81358181111561186b5761186b6117f7565b604051601f8201601f19908116603f01168101908382118183101715611893576118936117f7565b816040528281528860208487010111156118ac57600080fd5b8260208601602083013760006020848301015280955050505050509250929050565b634e487b7160e01b600052602160045260246000fd5b81518152602082015160c08201906004811061191057634e487b7160e01b600052602160045260246000fd5b60208301526040838101516001600160a01b031690830152606080840151908301526080808401516001600160401b03169083015260a0928301511515929091019190915290565b60005b8381101561197357818101518382015260200161195b565b50506000910152565b60008151808452611994816020860160208601611958565b601f01601f19169290920160200192915050565b602081526000610761602083018461197c565b6000602082840312156119cd57600080fd5b6107618261165a565b600080600080606085870312156119ec57600080fd5b6119f58561165a565b93506020850135925060408501356001600160401b03811115611a1757600080fd5b611a2387828801611671565b95989497509550505050565b8581526001600160401b0385166020820152831515604082015260806060820152816080820152818360a0830137600081830160a090810191909152601f909201601f19160101949350505050565b66026b7b232b61d160cd1b815260008351611aa0816007850160208801611958565b6c01021b7b73334b232b731b29d1609d1b6007918401918201528351611acd816014840160208801611958565b01601401949350505050565b8481526001600160401b03841660208201528215156040820152608060608201526000611b09608083018461197c565b9695505050505050565b634e487b7160e01b600052603260045260246000fd5b634e487b7160e01b600052601160045260246000fd5b600060ff821660ff8103611b5557611b55611b29565b60010192915050565b600061ffff808316818103611b7557611b75611b29565b6001019392505050565b600061ffff80841680611ba257634e487b7160e01b600052601260045260246000fd5b92169190910492915050565b61ffff82811682821603908082111561114a5761114a611b29565b61ffff818116838216028082169190828114611be757611be7611b29565b505092915050565b60ff818116838216019081111561044157610441611b29565b600060208284031215611c1a57600080fd5b5051919050565b60008251611c33818460208701611958565b919091019291505056fe360894a13ba1a3210667c828492db98dca3e2076cc3735a920a3ca505d382bbc02dd7bc7dec4dceedda775e58dd541e08a116c6c53815c0bd028192f7b6268009b779b17422d0df92223018b32b4d1fa46e071723d6817e2486d003becc55f00a2646970667358221220800d7212a52e4fefedb8eab6155b0232f1f879f99ca458bd62fb1eba2baf521364736f6c63430008160033",
  "linkReferences": {},
  "deployedLinkReferences": {}
}