{
  "_format": "hh-sol-artifact-1",
  "contractName": "ConsentManagement",
  "sourceName": "contracts/ConsentManagement.sol",
  "abi": [
    {
      "inputs": [],
      "stateMutability": "nonpayable",
      "type": "constructor"
    },
    {
      "inputs": [],
      "name": "AccessControlBadConfirmation",
      "type": "error"
    },
    {
      "inputs": [
        {
          "internalType": "address",
          "name": "account",
          "type": "address"
        },
        {
          "internalType": "bytes32",
          "name": "neededRole",
          "type": "bytes32"
        }
      ],
      "name": "AccessControlUnauthorizedAccount",
      "type": "error"
    },
    {
      "inputs": [
        {
          "internalType": "address",
          "name": "target",
          "type": "address"
        }
      ],
      "name": "AddressEmptyCode",
      "type": "error"
    },
    {
      "inputs": [
        {
          "internalType": "address",
          "name": "implementation",
          "type": "address"
        }
      ],
      "name": "ERC1967InvalidImplementation",
      "type": "error"
    },
    {
      "inputs": [],
      "name": "ERC1967NonPayable",
      "type": "error"
    },
    {
      "inputs": [],
      "name": "FailedCall",
      "type": "error"
    },
    {
      "inputs": [],
      "name": "InvalidInitialization",
      "type": "error"
    },
    {
      "inputs": [],
      "name": "NotInitializing",
      "type": "error"
    },
    {
      "inputs": [],
      "name": "ReentrancyGuardReentrantCall",
      "type": "error"
    },
    {
      "inputs": [],
      "name": "UUPSUnauthorizedCallContext",
      "type": "error"
    },
    {
      "inputs": [
        {
          "internalType": "bytes32",
          "name": "slot",
          "type": "bytes32"
        }
      ],
      "name": "UUPSUnsupportedProxiableUUID",
      "type": "error"
    },
    {
      "anonymous": false,
      "inputs": [
        {
          "indexed": true,
          "internalType": "bytes32",
          "name": "consentId",
          "type": "bytes32"
        },
        {
          "indexed": true,
          "internalType": "address",
          "name": "patientId",
          "type": "address"
        }
      ],
      "name": "ConsentExpired",
      "type": "event"
    },
    {
      "anonymous": false,
      "inputs": [
        {
          "indexed": true,
          "internalType": "bytes32",
          "name": "consentId",
          "type": "bytes32"
        },
        {
          "indexed": true,
          "internalType": "address",
          "name": "patientId",
          "type": "address"
        },
        {
          "indexed": true,
          "internalType": "address",
          "name": "clinicianId",
          "type": "address"
        },
        {
          "indexed": false,
          "internalType": "enum ConsentManagement.ConsentType",
          "name": "consentType",
          "type": "uint8"
        },
        {
          "indexed": false,
          "internalType": "uint64",
          "name": "grantedAt",
          "type": "uint64"
        },
        {
          "indexed": false,
          "internalType": "uint64",
          "name": "expiresAt",
          "type": "uint64"
        }
      ],
      "name": "ConsentGranted",
      "type": "event"
    },
    {
      "anonymous": false,
      "inputs": [
        {
          "indexed": true,
          "internalType": "bytes32",
          "name": "consentId",
          "type": "bytes32"
        },
        {
          "indexed": true,
          "internalType": "address",
          "name": "revokedBy",
          "type": "address"
        },
        {
          "indexed": false,
          "internalType": "uint64",
          "name": "revokedAt",
          "type": "uint64"
        }
      ],
      "name": "ConsentRevoked",
      "type": "event"
    },
    {
      "anonymous": false,
      "inputs": [
        {
          "indexed": false,
          "internalType": "uint64",
          "name": "version",
          "type": "uint64"
        }
      ],
      "name": "Initialized",
      "type": "event"
    },
    {
      "anonymous": false,
      "inputs": [
        {
          "indexed": true,
          "internalType": "bytes32",
          "name": "role",
          "type": "bytes32"
        },
        {
          "indexed": true,
          "internalType": "bytes32",
          "name": "previousAdminRole",
          "type": "bytes32"
        },
        {
          "indexed": true,
          "internalType": "bytes32",
          "name": "newAdminRole",
          "type": "bytes32"
        }
      ],
      "name": "RoleAdminChanged",
      "type": "event"
    },
    {
      "anonymous": false,
      "inputs": [
        {
          "indexed": true,
          "internalType": "bytes32",
          "name": "role",
          "type": "bytes32"
        },
        {
          "indexed": true,
          "internalType": "address",
          "name": "account",
          "type": "address"
        },
        {
          "indexed": true,
          "internalType": "address",
          "name": "sender",
          "type": "address"
        }
      ],
      "name": "RoleGranted",
      "type": "event"
    },
    {
      "anonymous": false,
      "inputs": [
        {
          "indexed": true,
          "internalType": "bytes32",
          "name": "role",
          "type": "bytes32"
        },
        {
          "indexed": true,
          "internalType": "address",
          "name": "account",
          "type": "address"
        },
        {
          "indexed": true,
          "internalType": "address",
          "name": "sender",
          "type": "address"
        }
      ],
      "name": "RoleRevoked",
      "type": "event"
    },
    {
      "anonymous": false,
      "inputs": [
        {
          "indexed": true,
          "internalType": "address",
          "name": "implementation",
          "type": "address"
        }
      ],
      "name": "Upgraded",
      "type": "event"
    },
    {
      "inputs": [],
      "name": "ADMIN_ROLE",
      "outputs": [
        {
          "internalType": "bytes32",
          "name": "",
          "type": "bytes32"
        }
      ],
      "stateMutability": "view",
      "type": "function"
    },
    {
      "inputs": [],
      "name": "CLINICIAN_ROLE",
      "outputs": [
        {
          "internalType": "bytes32",
          "name": "",
          "type": "bytes32"
        }
      ],
      "stateMutability": "view",
      "type": "function"
    },
    {
      "inputs": [],
      "name": "DEFAULT_ADMIN_ROLE",
      "outputs": [
        {
          "internalType": "bytes32",
          "name": "",
          "type": "bytes32"
        }
      ],
      "stateMutability": "view",
      "type": "function"
    },
    {
      "inputs": [],
      "name": "PATIENT_ROLE",
      "outputs": [
        {
          "internalType": "bytes32",
          "name": "",
          "type": "bytes32"
        }
      ],
      "stateMutability": "view",
      "type": "function"
    },
    {
      "inputs": [],
      "name": "UPGRADE_INTERFACE_VERSION",
      "outputs": [
        {
          "internalType": "string",
          "name": "",
          "type": "string"
        }
      ],
      "stateMutability": "view",
      "type": "function"
    },
    {
      "inputs": [
        {
          "internalType": "bytes32",
          "name": "consentId",
          "type": "bytes32"
        }
      ],
      "name": "getConsent",
      "outputs": [
        {
          "components": [
            {
              "internalType": "bytes32",
              "name": "consentId",
              "type": "bytes32"
            },
            {
              "internalType": "address",
              "name": "patientId",
              "type": "address"
            },
            {
              "internalType": "address",
              "name": "clinicianId",
              "type": "address"
            },
            {
              "internalType": "enum ConsentManagement.ConsentType",
              "name": "consentType",
              "type": "uint8"
            },
            {
              "internalType": "enum ConsentManagement.ConsentStatus",
              "name": "status",
              "type": "uint8"
            },
            {
              "internalType": "uint64",
              "name": "grantedAt",
              "type": "uint64"
            },
            {
              "internalType": "uint64",
              "name": "expiresAt",
              "type": "uint64"
            },
            {
              "internalType": "uint32",
              "name": "purpose",
              "type": "uint32"
            }
          ],
          "internalType": "struct ConsentManagement.ConsentRecord",
          "name": "record",
          "type": "tuple"
        }
      ],
      "stateMutability": "view",
      "type": "function"
    },
    {
      "inputs": [
        {
          "internalType": "address",
          "name": "patientId",
          "type": "address"
        }
      ],
      "name": "getPatientConsents",
      "outputs": [
        {
          "internalType": "bytes32[]",
          "name": "consentIds",
          "type": "bytes32[]"
        }
      ],
      "stateMutability": "view",
      "type": "function"
    },
    {
      "inputs": [
        {
          "internalType": "bytes32",
          "name": "role",
          "type": "bytes32"
        }
      ],
      "name": "getRoleAdmin",
      "outputs": [
        {
          "internalType": "bytes32",
          "name": "",
          "type": "bytes32"
        }
      ],
      "stateMutability": "view",
      "type": "function"
    },
    {
      "inputs": [
        {
          "internalType": "address",
          "name": "patientId",
          "type": "address"
        },
        {
          "internalType": "address",
          "name": "clinicianId",
          "type": "address"
        },
        {
          "internalType": "enum ConsentManagement.ConsentType",
          "name": "consentType",
          "type": "uint8"
        },
        {
          "internalType": "uint64",
          "name": "expiresAt",
          "type": "uint64"
        },
        {
          "internalType": "uint32",
          "name": "purpose",
          "type": "uint32"
        }
      ],
      "name": "grantConsent",
      "outputs": [
        {
          "internalType": "bytes32",
          "name": "consentId",
          "type": "bytes32"
        }
      ],
      "stateMutability": "nonpayable",
      "type": "function"
    },
    {
      "inputs": [
        {
          "internalType": "bytes32",
          "name": "role",
          "type": "bytes32"
        },
        {
          "internalType": "address",
          "name": "account",
          "type": "address"
        }
      ],
      "name": "grantRole",
      "outputs": [],
      "stateMutability": "nonpayable",
      "type": "function"
    },
    {
      "inputs": [
        {
          "internalType": "bytes32",
          "name": "role",
          "type": "bytes32"
        },
        {
          "internalType": "address",
          "name": "account",
          "type": "address"
        }
      ],
      "name": "hasRole",
      "outputs": [
        {
          "internalType": "bool",
          "name": "",
          "type": "bool"
        }
      ],
      "stateMutability": "view",
      "type": "function"
    },
    {
      "inputs": [
        {
          "internalType": "address",
          "name": "patientId",
          "type": "address"
        },
        {
          "internalType": "address",
          "name": "clinicianId",
          "type": "address"
        },
        {
          "internalType": "enum ConsentManagement.ConsentType",
          "name": "consentType",
          "type": "uint8"
        }
      ],
      "name": "hasValidConsent",
      "outputs": [
        {
          "internalType": "bool",
          "name": "exists",
          "type": "bool"
        }
      ],
      "stateMutability": "view",
      "type": "function"
    },
    {
      "inputs": [
        {
          "internalType": "address",
          "name": "admin",
          "type": "address"
        }
      ],
      "name": "initialize",
      "outputs": [],
      "stateMutability": "nonpayable",
      "type": "function"
    },
    {
      "inputs": [],
      "name": "proxiableUUID",
      "outputs": [
        {
          "internalType": "bytes32",
          "name": "",
          "type": "bytes32"
        }
      ],
      "stateMutability": "view",
      "type": "function"
    },
    {
      "inputs": [
        {
          "internalType": "bytes32",
          "name": "role",
          "type": "bytes32"
        },
        {
          "internalType": "address",
          "name": "callerConfirmation",
          "type": "address"
        }
      ],
      "name": "renounceRole",
      "outputs": [],
      "stateMutability": "nonpayable",
      "type": "function"
    },
    {
      "inputs": [
        {
          "internalType": "bytes32",
          "name": "consentId",
          "type": "bytes32"
        }
      ],
      "name": "revokeConsent",
      "outputs": [],
      "stateMutability": "nonpayable",
      "type": "function"
    },
    {
      "inputs": [
        {
          "internalType": "bytes32",
          "name": "role",
          "type": "bytes32"
        },
        {
          "internalType": "address",
          "name": "account",
          "type": "address"
        }
      ],
      "name": "revokeRole",
      "outputs": [],
      "stateMutability": "nonpayable",
      "type": "function"
    },
    {
      "inputs": [
        {
          "internalType": "bytes4",
          "name": "interfaceId",
          "type": "bytes4"
        }
      ],
      "name": "supportsInterface",
      "outputs": [
        {
          "internalType": "bool",
          "name": "",
          "type": "bool"
        }
      ],
      "stateMutability": "view",
      "type": "function"
    },
    {
      "inputs": [
        {
          "internalType": "address",
          "name": "newImplementation",
          "type": "address"
        },
        {
          "internalType": "bytes",
          "name": "data",
          "type": "bytes"
        }
      ],
      "name": "upgradeToAndCall",
      "outputs": [],
      "stateMutability": "payable",
      "type": "function"
    },
    {
      "inputs": [],
      "name": "version",
      "outputs": [
        {
          "internalType": "string",
          "name": "",
          "type": "string"
        }
      ],
      "stateMutability": "pure",
      "type": "function"
    }
  ],
  "bytecode": "0x60a06040523060805234801561001457600080fd5b5061001d610022565b6100d4565b7ff0c57e16840df040f15088dc2f81fe391c3923bec73e23a9662efc9c229c6a00805468010000000000000000900460ff16156100725760405163f92ee8a960e01b815260040160405180910390fd5b80546001600160401b03908116146100d15780546001600160401b0319166001600160401b0390811782556040519081527fc7f505b2f371ae2175ee4913f4499e1f2633a7b5936321eed1cdaeb6115181d29060200160405180910390a15b50565b608051611bba6100fd600039600081816112330152818161125c01526113af0152611bba6000f3fe60806040526004361061011f5760003560e01c806354fd4d50116100a0578063a5817e1311610064578063a5817e1314610339578063ac5cb97d1461036d578063ad3cb1cc146103a1578063c4d66de8146103d2578063d547741f146103f257600080fd5b806354fd4d501461027e57806375b238fc146102b55780637715ae34146102d757806391d1485414610304578063a217fddf1461032457600080fd5b806324924385116100e757806324924385146101e95780632f2ff15d1461021657806336568abe146102365780634f1ef2861461025657806352d1902d1461026957600080fd5b806301ffc9a71461012457806306da8b221461015957806307a0315d146101875780631e8a5fab146101a9578063248a9ca3146101c9575b600080fd5b34801561013057600080fd5b5061014461013f366004611679565b610412565b60405190151581526020015b60405180910390f35b34801561016557600080fd5b506101796101743660046116c9565b610449565b604051908152602001610150565b34801561019357600080fd5b506101a76101a2366004611749565b61097e565b005b3480156101b557600080fd5b506101446101c4366004611762565b610b8a565b3480156101d557600080fd5b506101796101e4366004611749565b610c81565b3480156101f557600080fd5b506102096102043660046117a5565b610ca3565b60405161015091906117c0565b34801561022257600080fd5b506101a7610231366004611804565b610d0f565b34801561024257600080fd5b506101a7610251366004611804565b610d31565b6101a7610264366004611846565b610d69565b34801561027557600080fd5b50610179610d88565b34801561028a57600080fd5b506040805180820190915260058152640312e302e360dc1b60208201525b604051610150919061192b565b3480156102c157600080fd5b50610179600080516020611b6583398151915281565b3480156102e357600080fd5b506102f76102f2366004611749565b610da5565b6040516101509190611992565b34801561031057600080fd5b5061014461031f366004611804565b610f28565b34801561033057600080fd5b50610179600081565b34801561034557600080fd5b506101797fe497b4ad79a67650fca774cf0812e4505f07dd6d87a3c1afc29076ccc8bbcefe81565b34801561037957600080fd5b506101797f72606200fac42b7dc86b75901d61ecfab2a4a1a6eded478b97a428094891abed81565b3480156103ad57600080fd5b506102a8604051806040016040528060058152602001640352e302e360dc1b81525081565b3480156103de57600080fd5b506101a76103ed3660046117a5565b610f60565b3480156103fe57600080fd5b506101a761040d366004611804565b61108e565b60006001600160e01b03198216637965db0b60e01b148061044357506301ffc9a760e01b6001600160e01b03198316145b92915050565b60006104536110aa565b6001600160a01b0386166104ae5760405162461bcd60e51b815260206004820152601760248201527f496e76616c69642070617469656e74206164647265737300000000000000000060448201526064015b60405180910390fd5b6001600160a01b0385166105045760405162461bcd60e51b815260206004820152601960248201527f496e76616c696420636c696e696369616e20616464726573730000000000000060448201526064016104a5565b61052e7fe497b4ad79a67650fca774cf0812e4505f07dd6d87a3c1afc29076ccc8bbcefe86610f28565b8061055e575061055e7f72606200fac42b7dc86b75901d61ecfab2a4a1a6eded478b97a428094891abed87610f28565b6105995760405162461bcd60e51b815260206004820152600c60248201526b155b985d5d1a1bdc9a5e995960a21b60448201526064016104a5565b6001600160a01b0380871660009081526001602090815260408083209389168352929052908120818660038111156105d3576105d361195e565b60038111156105e4576105e461195e565b8152602081019190915260400160002054905080156106ad57600081815260026020526040902060016002820154600160a81b900460ff16600381111561062d5761062d61195e565b14158061065f575060038101546001600160401b03161580159061065f57506003810154426001600160401b03909116105b6106ab5760405162461bcd60e51b815260206004820152601d60248201527f41637469766520636f6e73656e7420616c72656164792065786973747300000060448201526064016104a5565b505b6000805490806106bc83611a2e565b9190505550868686426000546040516020016106dc959493929190611a55565b6040516020818303038152906040528051906020012091506000604051806101000160405280848152602001896001600160a01b03168152602001886001600160a01b031681526020018760038111156107385761073861195e565b8152602001600181526001600160401b0342811660208084019190915290881660408084019190915263ffffffff8816606093840152600087815260028084529082902085518155928501516001840180546001600160a01b039283166001600160a01b03199182161790915592860151918401805492909116928216831781559385015194955085949293916001600160a81b031990911617600160a01b8360038111156107e9576107e961195e565b0217905550608082015160028201805460ff60a81b1916600160a81b8360038111156108175761081761195e565b021790555060a08201516002820180546001600160401b03928316600160b01b0267ffffffffffffffff60b01b1990911617905560c08301516003928301805460e09095015163ffffffff16600160401b026bffffffffffffffffffffffff199095169190921617929092179091556001600160a01b03808a166000908152600160209081526040808320938c168352929052908120859290919089908111156108c3576108c361195e565b60038111156108d4576108d461195e565b815260208082019290925260409081016000908120939093556001600160a01b03808c168085526003845282852080546001810182559086529390942090920186905560a08401519051918a16929186917f94fed2f661a0045e948f6175c6e5422d6204c19a88377267dd3498ab4bcbf90591610954918c918c90611aa4565b60405180910390a450506109756001600080516020611b4583398151915255565b95945050505050565b6109866110aa565b600081815260026020526040902080546109d65760405162461bcd60e51b815260206004820152601160248201527010dbdb9cd95b9d081b9bdd08199bdd5b99607a1b60448201526064016104a5565b60016002820154600160a81b900460ff1660038111156109f8576109f861195e565b14610a3a5760405162461bcd60e51b8152602060048201526012602482015271436f6e73656e74206e6f742061637469766560701b60448201526064016104a5565b60018101546001600160a01b0316331480610a685750610a68600080516020611b6583398151915233610f28565b610aad5760405162461bcd60e51b8152602060048201526016602482015275556e617574686f72697a656420746f207265766f6b6560501b60448201526064016104a5565b60028101805460ff60a81b198116600160a91b17918290556001808401546001600160a01b03908116600090815260209283526040808220929094168152915290812091600160a01b900460ff166003811115610b0c57610b0c61195e565b6003811115610b1d57610b1d61195e565b81526020808201929092526040908101600090812055516001600160401b0342168152339184917f7d9429bb8d77a461e51d3ff1fd70db69aadd5fa2e259909f35aeebf5c3c7042e910160405180910390a350610b876001600080516020611b4583398151915255565b50565b6001600160a01b0380841660009081526001602090815260408083209386168352929052908120819081846003811115610bc657610bc661195e565b6003811115610bd757610bd761195e565b8152602081019190915260400160002054905080610bf9576000915050610c7a565b600081815260026020526040902060016002820154600160a81b900460ff166003811115610c2957610c2961195e565b14610c3957600092505050610c7a565b60038101546001600160401b031615801590610c6357506003810154426001600160401b03909116105b15610c7357600092505050610c7a565b6001925050505b9392505050565b6000908152600080516020611b25833981519152602052604090206001015490565b6001600160a01b038116600090815260036020908152604091829020805483518184028101840190945280845260609392830182828015610d0357602002820191906000526020600020905b815481526020019060010190808311610cef575b50505050509050919050565b610d1882610c81565b610d21816110f6565b610d2b8383611100565b50505050565b6001600160a01b0381163314610d5a5760405163334bd91960e11b815260040160405180910390fd5b610d6482826111ac565b505050565b610d71611228565b610d7a826112cf565b610d8482826112e7565b5050565b6000610d926113a4565b50600080516020611b0583398151915290565b610ded60408051610100810182526000808252602082018190529181018290529060608201908152602001600081526000602082018190526040820181905260609091015290565b6000828152600260208181526040928390208351610100810185528154815260018201546001600160a01b039081169382019390935292810154918216938301939093529091906060830190600160a01b900460ff166003811115610e5457610e5461195e565b6003811115610e6557610e6561195e565b81526020016002820160159054906101000a900460ff166003811115610e8d57610e8d61195e565b6003811115610e9e57610e9e61195e565b81526002820154600160b01b90046001600160401b0390811660208301526003909201549182166040820152600160401b90910463ffffffff166060909101528051909150610f235760405162461bcd60e51b815260206004820152601160248201527010dbdb9cd95b9d081b9bdd08199bdd5b99607a1b60448201526064016104a5565b919050565b6000918252600080516020611b25833981519152602090815260408084206001600160a01b0393909316845291905290205460ff1690565b6000610f6a6113ed565b805490915060ff600160401b82041615906001600160401b0316600081158015610f915750825b90506000826001600160401b03166001148015610fad5750303b155b905081158015610fbb575080155b15610fd95760405163f92ee8a960e01b815260040160405180910390fd5b845467ffffffffffffffff19166001178555831561100357845460ff60401b1916600160401b1785555b61100b611416565b611013611416565b61101b61141e565b611026600087611100565b5061103f600080516020611b6583398151915287611100565b50831561108657845460ff60401b19168555604051600181527fc7f505b2f371ae2175ee4913f4499e1f2633a7b5936321eed1cdaeb6115181d29060200160405180910390a15b505050505050565b61109782610c81565b6110a0816110f6565b610d2b83836111ac565b600080516020611b458339815191528054600119016110dc57604051633ee5aeb560e01b815260040160405180910390fd5b60029055565b6001600080516020611b4583398151915255565b610b87813361142e565b6000600080516020611b2583398151915261111b8484610f28565b61119b576000848152602082815260408083206001600160a01b03871684529091529020805460ff191660011790556111513390565b6001600160a01b0316836001600160a01b0316857f2f8788117e7eff1d82e926ec794901d17c78024a50270940304540a733656f0d60405160405180910390a46001915050610443565b6000915050610443565b5092915050565b6000600080516020611b258339815191526111c78484610f28565b1561119b576000848152602082815260408083206001600160a01b0387168085529252808320805460ff1916905551339287917ff6391f5c32d9c69d2a47ea670b442974b53935d1edc7fd64eb21e047a839171b9190a46001915050610443565b306001600160a01b037f00000000000000000000000000000000000000000000000000000000000000001614806112af57507f00000000000000000000000000000000000000000000000000000000000000006001600160a01b03166112a3600080516020611b05833981519152546001600160a01b031690565b6001600160a01b031614155b156112cd5760405163703e46dd60e11b815260040160405180910390fd5b565b600080516020611b65833981519152610d84816110f6565b816001600160a01b03166352d1902d6040518163ffffffff1660e01b8152600401602060405180830381865afa925050508015611341575060408051601f3d908101601f1916820190925261133e91810190611acf565b60015b61136957604051634c9c8ce360e01b81526001600160a01b03831660048201526024016104a5565b600080516020611b05833981519152811461139a57604051632a87526960e21b8152600481018290526024016104a5565b610d648383611467565b306001600160a01b037f000000000000000000000000000000000000000000000000000000000000000016146112cd5760405163703e46dd60e11b815260040160405180910390fd5b6000807ff0c57e16840df040f15088dc2f81fe391c3923bec73e23a9662efc9c229c6a00610443565b6112cd6114bd565b6114266114bd565b6112cd6114e2565b6114388282610f28565b610d845760405163e2517d3f60e01b81526001600160a01b0382166004820152602481018390526044016104a5565b611470826114ea565b6040516001600160a01b038316907fbc7cd75a20ee27fd9adebab32041f755214dbc6bffa90cc0225b39da2e5c2d3b90600090a28051156114b557610d64828261154f565b610d846115bc565b6114c56115db565b6112cd57604051631afcd79f60e31b815260040160405180910390fd5b6110e26114bd565b806001600160a01b03163b60000361152057604051634c9c8ce360e01b81526001600160a01b03821660048201526024016104a5565b600080516020611b0583398151915280546001600160a01b0319166001600160a01b0392909216919091179055565b6060600080846001600160a01b03168460405161156c9190611ae8565b600060405180830381855af49150503d80600081146115a7576040519150601f19603f3d011682016040523d82523d6000602084013e6115ac565b606091505b50915091506109758583836115f5565b34156112cd5760405163b398979f60e01b815260040160405180910390fd5b60006115e56113ed565b54600160401b900460ff16919050565b60608261160a5761160582611651565b610c7a565b815115801561162157506001600160a01b0384163b155b1561164a57604051639996b31560e01b81526001600160a01b03851660048201526024016104a5565b5080610c7a565b80511561166057805160208201fd5b60405163d6bda27560e01b815260040160405180910390fd5b60006020828403121561168b57600080fd5b81356001600160e01b031981168114610c7a57600080fd5b80356001600160a01b0381168114610f2357600080fd5b803560048110610f2357600080fd5b600080600080600060a086880312156116e157600080fd5b6116ea866116a3565b94506116f8602087016116a3565b9350611706604087016116ba565b925060608601356001600160401b038116811461172257600080fd5b9150608086013563ffffffff8116811461173b57600080fd5b809150509295509295909350565b60006020828403121561175b57600080fd5b5035919050565b60008060006060848603121561177757600080fd5b611780846116a3565b925061178e602085016116a3565b915061179c604085016116ba565b90509250925092565b6000602082840312156117b757600080fd5b610c7a826116a3565b6020808252825182820181905260009190848201906040850190845b818110156117f8578351835292840192918401916001016117dc565b50909695505050505050565b6000806040838503121561181757600080fd5b82359150611827602084016116a3565b90509250929050565b634e487b7160e01b600052604160045260246000fd5b6000806040838503121561185957600080fd5b611862836116a3565b915060208301356001600160401b038082111561187e57600080fd5b818501915085601f83011261189257600080fd5b8135818111156118a4576118a4611830565b604051601f8201601f19908116603f011681019083821181831017156118cc576118cc611830565b816040528281528860208487010111156118e557600080fd5b8260208601602083013760006020848301015280955050505050509250929050565b60005b8381101561192257818101518382015260200161190a565b50506000910152565b602081526000825180602084015261194a816040850160208701611907565b601f01601f19169190910160400192915050565b634e487b7160e01b600052602160045260246000fd5b60048110610b8757634e487b7160e01b600052602160045260246000fd5b815181526020808301516001600160a01b03908116918301919091526040808401519091169082015260608201516101008201906119cf81611974565b606083015260808301516119e281611974565b806080840152506001600160401b0360a08401511660a083015260c0830151611a1660c08401826001600160401b03169052565b5060e08301516111a560e084018263ffffffff169052565b600060018201611a4e57634e487b7160e01b600052601160045260246000fd5b5060010190565b60006bffffffffffffffffffffffff19808860601b168352808760601b16601484015250611a8285611974565b5060f89390931b60288401526029830191909152604982015260690192915050565b60608101611ab185611974565b9381526001600160401b039283166020820152911660409091015290565b600060208284031215611ae157600080fd5b5051919050565b60008251611afa818460208701611907565b919091019291505056fe360894a13ba1a3210667c828492db98dca3e2076cc3735a920a3ca505d382bbc02dd7bc7dec4dceedda775e58dd541e08a116c6c53815c0bd028192f7b6268009b779b17422d0df92223018b32b4d1fa46e071723d6817e2486d003becc55f00a49807205ce4d355092ef5a8a18f56e8913cf4a201fbe287825b095693c21775a2646970667358221220ac6207f092d7b27a90634f183a7afd25eddc535cba7ebe363ceba9fe952f9bab64736f6c63430008160033",
  "linkReferences": {},
  "deployedLinkReferences": {}
}